Component: ARM Compiler 5.06 update 2 (build 183) Tool: armlink [4d35b7]

==============================================================================

Section Cross References

    stm32f10x.o(RESET) refers to stm32f10x.o(STACK) for __initial_sp
    stm32f10x.o(RESET) refers to stm32f10x.o(.text) for Reset_Handler
    stm32f10x.o(RESET) refers to port.o(.emb_text) for vPortSVCHandler
    stm32f10x.o(RESET) refers to port.o(.text) for xPortSysTickHandler
    stm32f10x.o(RESET) refers to encoder.o(.text) for EXTI4_IRQHandler
    stm32f10x.o(RESET) refers to timertest.o(.text) for vTimer2IntHandler
    stm32f10x.o(RESET) refers to serial.o(.text) for vUARTInterruptHandler
    stm32f10x.o(.text) refers to entry.o(.ARM.Collect$$$$00000000) for __main
    stm32f10x_usart.o(.text) refers to stm32f10x_rcc.o(.text) for RCC_APB2PeriphResetCmd
    stm32f10x_gpio.o(.text) refers to stm32f10x_rcc.o(.text) for RCC_APB2PeriphResetCmd
    stm32f10x_nvic.o(.text) refers to cortexm3_macro_rvds.o(.text) for __SETPRIMASK
    stm32f10x_rcc.o(.text) refers to stm32f10x_rcc.o(.constdata) for APBAHBPrescTable
    stm32f10x_spi.o(.text) refers to stm32f10x_rcc.o(.text) for RCC_APB2PeriphResetCmd
    stm32f10x_tim.o(.text) refers to stm32f10x_rcc.o(.text) for RCC_APB1PeriphResetCmd
    stm32f10x_tim.o(.text) refers to stm32f10x_tim.o(.constdata) for Tab_OCModeMask
    stm32f10x_i2c.o(.text) refers to stm32f10x_rcc.o(.text) for RCC_APB1PeriphResetCmd
    stm32f10x_adc.o(.text) refers to stm32f10x_rcc.o(.text) for RCC_APB2PeriphResetCmd
    serial.o(.text) refers to queue.o(.text) for xQueueGenericCreate
==============================================================================

Removing Unused input sections from the image.

    Removing stm32f10x_spi.o(.text), (532 bytes).
    Removing stm32f10x_flash.o(.text), (1312 bytes).
    Removing spi_flash.o(.text), (980 bytes).
    Removing memory.o(.text), (48 bytes).
    Removing dfixul.o(.text), (48 bytes).
    Removing cdrcmple.o(.text), (48 bytes).

6 unused section(s) (total 2968 bytes) removed from the image.

==============================================================================

Image Symbol Table

    Local Symbols

    Symbol Name                              Value     Ov Type        Size  Object(Section)

    ../clib/microlib/division.c              0x00000000   Number         0  uldiv.o ABSOLUTE
    ../clib/microlib/division.c              0x00000000   Number         0  uidiv.o ABSOLUTE
    ../clib/microlib/errno.c                 0x00000000   Number         0  errno.o ABSOLUTE
    ../clib/microlib/init/entry.s            0x00000000   Number         0  entry7b.o ABSOLUTE
    ../clib/microlib/init/entry.s            0x00000000   Number         0  entry11b.o ABSOLUTE
    ../clib/microlib/init/entry.s            0x00000000   Number         0  entry11a.o ABSOLUTE
    ../clib/microlib/init/entry.s            0x00000000   Number         0  entry10b.o ABSOLUTE
    ../clib/microlib/init/entry.s            0x00000000   Number         0  entry10a.o ABSOLUTE
    ../clib/microlib/init/entry.s            0x00000000   Number         0  entry9b.o ABSOLUTE
    ../clib/microlib/init/entry.s            0x00000000   Number         0  entry9a.o ABSOLUTE
    ../clib/microlib/init/entry.s            0x00000000   Number         0  entry8b.o ABSOLUTE
    ../clib/microlib/init/entry.s            0x00000000   Number         0  entry8a.o ABSOLUTE
    ../clib/microlib/init/entry.s            0x00000000   Number         0  entry.o ABSOLUTE
    ../clib/microlib/init/entry.s            0x00000000   Number         0  entry7a.o ABSOLUTE
    ../clib/microlib/init/entry.s            0x00000000   Number         0  entry5.o ABSOLUTE
    ../clib/microlib/init/entry.s            0x00000000   Number         0  entry2.o ABSOLUTE
    ../clib/microlib/longlong.c              0x00000000   Number         0  llushr.o ABSOLUTE
    ../clib/microlib/longlong.c              0x00000000   Number         0  llsshr.o ABSOLUTE
    ../clib/microlib/longlong.c              0x00000000   Number         0  llshl.o ABSOLUTE
    ../clib/microlib/malloc/calloc.c         0x00000000   Number         0  calloc.o ABSOLUTE
    ../clib/microlib/malloc/malloc.c         0x00000000   Number         0  malloc.o ABSOLUTE
    ../clib/microlib/malloc/malloc.c         0x00000000   Number         0  malloca.o ABSOLUTE
    ../clib/microlib/malloc/malloc.c         0x00000000   Number         0  mallocra.o ABSOLUTE
    ../clib/microlib/malloc/malloc.c         0x00000000   Number         0  mallocr.o ABSOLUTE
    ../clib/microlib/malloc/mvars.c          0x00000000   Number         0  mvars.o ABSOLUTE
    ../clib/microlib/printf/printf.c         0x00000000   Number         0  printfb.o ABSOLUTE
    ../clib/microlib/printf/printf.c         0x00000000   Number         0  printf0.o ABSOLUTE
    ../clib/microlib/printf/printf.c         0x00000000   Number         0  printf1.o ABSOLUTE
    ../clib/microlib/printf/printf.c         0x00000000   Number         0  printf2.o ABSOLUTE
    ../clib/microlib/printf/printf.c         0x00000000   Number         0  printf3.o ABSOLUTE
    ../clib/microlib/printf/printf.c         0x00000000   Number         0  printfa.o ABSOLUTE
    ../clib/microlib/printf/printf.c         0x00000000   Number         0  printf4.o ABSOLUTE
    ../clib/microlib/printf/printf.c         0x00000000   Number         0  printf5.o ABSOLUTE
    ../clib/microlib/printf/printf.c         0x00000000   Number         0  printf6.o ABSOLUTE
    ../clib/microlib/printf/printf.c         0x00000000   Number         0  printf7.o ABSOLUTE
    ../clib/microlib/printf/printf.c         0x00000000   Number         0  printf8.o ABSOLUTE
    ../clib/microlib/printf/stubs.s          0x00000000   Number         0  stubs.o ABSOLUTE
    ../clib/microlib/stdio/fputc.c           0x00000000   Number         0  fputc.o ABSOLUTE
    ../clib/microlib/stdio/semi.s            0x00000000   Number         0  semi.o ABSOLUTE
    ../clib/microlib/stdio/streams.c         0x00000000   Number         0  stdout.o ABSOLUTE
    ../clib/microlib/string/memcpy.c         0x00000000   Number         0  memcpyb.o ABSOLUTE
    ../clib/microlib/string/memcpy.c         0x00000000   Number         0  memcpya.o ABSOLUTE
    ../clib/microlib/string/strlen.c         0x00000000   Number         0  strlen.o ABSOLUTE
    ../clib/microlib/stubs.s                 0x00000000   Number         0  iusefp.o ABSOLUTE
    ../clib/microlib/stubs.s                 0x00000000   Number         0  iusesemip.o ABSOLUTE
    ../fplib/microlib/d2f.c                  0x00000000   Number         0  d2f.o ABSOLUTE
    ../fplib/microlib/f2d.c                  0x00000000   Number         0  f2d.o ABSOLUTE
    ../fplib/microlib/fpadd.c                0x00000000   Number         0  fadd.o ABSOLUTE
    ../fplib/microlib/fpadd.c                0x00000000   Number         0  dadd.o ABSOLUTE
    ../fplib/microlib/fpdiv.c                0x00000000   Number         0  fdiv.o ABSOLUTE
    ../fplib/microlib/fpdiv.c                0x00000000   Number         0  ddiv.o ABSOLUTE
    ../fplib/microlib/fpepilogue.c           0x00000000   Number         0  fepilogue.o ABSOLUTE
    ../fplib/microlib/fpepilogue.c           0x00000000   Number         0  depilogue.o ABSOLUTE
    ../fplib/microlib/fpfix.c                0x00000000   Number         0  dfixi.o ABSOLUTE
    ../fplib/microlib/fpfix.c                0x00000000   Number         0  dfixul.o ABSOLUTE
    ../fplib/microlib/fpfix.c                0x00000000   Number         0  ffixi.o ABSOLUTE
    ../fplib/microlib/fpflt.c                0x00000000   Number         0  fflti.o ABSOLUTE
    ../fplib/microlib/fpflt.c                0x00000000   Number         0  ffltui.o ABSOLUTE
    ../fplib/microlib/fpflt.c                0x00000000   Number         0  dflti.o ABSOLUTE
    ../fplib/microlib/fpflt.c                0x00000000   Number         0  dfltui.o ABSOLUTE
    ../fplib/microlib/fpmul.c                0x00000000   Number         0  fmul.o ABSOLUTE
    ../fplib/microlib/fpmul.c                0x00000000   Number         0  dmul.o ABSOLUTE
    ../fplib/microlib/fpscalb.c              0x00000000   Number         0  dscalb.o ABSOLUTE
    ../fplib/microlib/fpsqrt.c               0x00000000   Number         0  dsqrt.o ABSOLUTE
    ../mathlib/asin.c                        0x00000000   Number         0  asin_x.o ABSOLUTE
    ../mathlib/asin.c                        0x00000000   Number         0  asin.o ABSOLUTE
    ../mathlib/dunder.c                      0x00000000   Number         0  dunder.o ABSOLUTE
    ../mathlib/fpclassify.c                  0x00000000   Number         0  fpclassify.o ABSOLUTE
    ../mathlib/poly.c                        0x00000000   Number         0  poly.o ABSOLUTE
    ../mathlib/sqrt.c                        0x00000000   Number         0  sqrt.o ABSOLUTE
    ../mathlib/sqrt.c                        0x00000000   Number         0  sqrt_x.o ABSOLUTE
    ..\..\Source\list.c                      0x00000000   Number         0  list.o ABSOLUTE
    ..\..\Source\portable\MemMang\heap_2.c   0x00000000   Number         0  heap_2.o ABSOLUTE
    ..\..\Source\portable\RVDS\ARM_CM3\port.c 0x00000000   Number         0  port.o ABSOLUTE
    ..\..\Source\queue.c                     0x00000000   Number         0  queue.o ABSOLUTE
    ..\..\Source\tasks.c                     0x00000000   Number         0  tasks.o ABSOLUTE
    ..\Common\drivers\ST\STM32F10xFWLib\src\cortexm3_macro_rvds.s 0x00000000   Number         0  cortexm3_macro_rvds.o ABSOLUTE
    ..\\..\\Source\\portable\\RVDS\\ARM_CM3\\port.c 0x00000000   Number         0  port.o ABSOLUTE
    ADC\ADC_DMA.c                            0x00000000   Number         0  adc_dma.o ABSOLUTE
    ADC\adc_handler.c                        0x00000000   Number         0  adc_handler.o ABSOLUTE
    Blinky\my_blinky.c                       0x00000000   Number         0  my_blinky.o ABSOLUTE
    Encoder\encoder.c                        0x00000000   Number         0  encoder.o ABSOLUTE
    Finder\Tom_finder.c                      0x00000000   Number         0  tom_finder.o ABSOLUTE
    Finder\Tom_jobs.c                        0x00000000   Number         0  tom_jobs.o ABSOLUTE
    Flash\memory.c                           0x00000000   Number         0  memory.o ABSOLUTE
    Init\my_init.c                           0x00000000   Number         0  my_init.o ABSOLUTE
    MPU6050\MPU6050.c                        0x00000000   Number         0  mpu6050.o ABSOLUTE
    MPU6050\my_mpu6050_handler.c             0x00000000   Number         0  my_mpu6050_handler.o ABSOLUTE
    PWM\motor_ctrl.c                         0x00000000   Number         0  motor_ctrl.o ABSOLUTE
    STM32F10x.s                              0x00000000   Number         0  stm32f10x.o ABSOLUTE
    STM32F10xFWLib\src\stm32f10x_adc.c       0x00000000   Number         0  stm32f10x_adc.o ABSOLUTE
    STM32F10xFWLib\src\stm32f10x_dma.c       0x00000000   Number         0  stm32f10x_dma.o ABSOLUTE
    STM32F10xFWLib\src\stm32f10x_exti.c      0x00000000   Number         0  stm32f10x_exti.o ABSOLUTE
    STM32F10xFWLib\src\stm32f10x_flash.c     0x00000000   Number         0  stm32f10x_flash.o ABSOLUTE
    STM32F10xFWLib\src\stm32f10x_gpio.c      0x00000000   Number         0  stm32f10x_gpio.o ABSOLUTE
    STM32F10xFWLib\src\stm32f10x_i2c.c       0x00000000   Number         0  stm32f10x_i2c.o ABSOLUTE
    STM32F10xFWLib\src\stm32f10x_lib.c       0x00000000   Number         0  stm32f10x_lib.o ABSOLUTE
    STM32F10xFWLib\src\stm32f10x_nvic.c      0x00000000   Number         0  stm32f10x_nvic.o ABSOLUTE
    STM32F10xFWLib\src\stm32f10x_rcc.c       0x00000000   Number         0  stm32f10x_rcc.o ABSOLUTE
    STM32F10xFWLib\src\stm32f10x_spi.c       0x00000000   Number         0  stm32f10x_spi.o ABSOLUTE
    STM32F10xFWLib\src\stm32f10x_systick.c   0x00000000   Number         0  stm32f10x_systick.o ABSOLUTE
    STM32F10xFWLib\src\stm32f10x_tim.c       0x00000000   Number         0  stm32f10x_tim.o ABSOLUTE
    STM32F10xFWLib\src\stm32f10x_usart.c     0x00000000   Number         0  stm32f10x_usart.o ABSOLUTE
    cdcmple.s                                0x00000000   Number         0  cdcmple.o ABSOLUTE
    cdrcmple.s                               0x00000000   Number         0  cdrcmple.o ABSOLUTE
    cfcmple.s                                0x00000000   Number         0  cfcmple.o ABSOLUTE
    cfrcmple.s                               0x00000000   Number         0  cfrcmple.o ABSOLUTE
    dc.s                                     0x00000000   Number         0  dc.o ABSOLUTE
    handlers.s                               0x00000000   Number         0  handlers.o ABSOLUTE
    init.s                                   0x00000000   Number         0  init.o ABSOLUTE
    main.c                                   0x00000000   Number         0  main.o ABSOLUTE
    movement\Jerry_jobs.c                    0x00000000   Number         0  jerry_jobs.o ABSOLUTE
    movement\Jerry_movement.c                0x00000000   Number         0  jerry_movement.o ABSOLUTE
    serial\my_serial.c                       0x00000000   Number         0  my_serial.o ABSOLUTE
    serial\serial.c                          0x00000000   Number         0  serial.o ABSOLUTE
    spi_flash.c                              0x00000000   Number         0  spi_flash.o ABSOLUTE
    timertest.c                              0x00000000   Number         0  timertest.o ABSOLUTE
    RESET                                    0x08000000   Section      236  stm32f10x.o(RESET)
    .ARM.Collect$$$$00000000                 0x080000ec   Section        0  entry.o(.ARM.Collect$$$$00000000)
    .ARM.Collect$$$$00000001                 0x080000ec   Section        4  entry2.o(.ARM.Collect$$$$00000001)
    .ARM.Collect$$$$00000004                 0x080000f0   Section        4  entry5.o(.ARM.Collect$$$$00000004)
    .ARM.Collect$$$$00000008                 0x080000f4   Section        0  entry7b.o(.ARM.Collect$$$$00000008)
    .ARM.Collect$$$$0000000A                 0x080000f4   Section        0  entry8b.o(.ARM.Collect$$$$0000000A)
    .ARM.Collect$$$$0000000B                 0x080000f4   Section        8  entry9a.o(.ARM.Collect$$$$0000000B)
    .ARM.Collect$$$$0000000D                 0x080000fc   Section        0  entry10a.o(.ARM.Collect$$$$0000000D)
    .ARM.Collect$$$$0000000F                 0x080000fc   Section        0  entry11a.o(.ARM.Collect$$$$0000000F)
    .ARM.Collect$$$$00002712                 0x080000fc   Section        4  entry2.o(.ARM.Collect$$$$00002712)
    __lit__00000000                          0x080000fc   Data           4  entry2.o(.ARM.Collect$$$$00002712)
    .emb_text                                0x08000100   Section      150  port.o(.emb_text)
    .text                                    0x08000198   Section       28  stm32f10x.o(.text)
    .text                                    0x080001b4   Section      110  cortexm3_macro_rvds.o(.text)
    .text                                    0x08000224   Section        0  stm32f10x_usart.o(.text)
    .text                                    0x08000548   Section        0  stm32f10x_gpio.o(.text)
    .text                                    0x08000828   Section        0  stm32f10x_nvic.o(.text)
    .text                                    0x08000c08   Section        0  stm32f10x_rcc.o(.text)
    .text                                    0x08000f84   Section        0  stm32f10x_systick.o(.text)
    .text                                    0x08001048   Section        0  stm32f10x_tim.o(.text)
    TI1_Config                               0x080011a3   Thumb Code    56  stm32f10x_tim.o(.text)
    TI2_Config                               0x080011f5   Thumb Code    80  stm32f10x_tim.o(.text)
    PWMI_Config                              0x08001245   Thumb Code   124  stm32f10x_tim.o(.text)
    TI4_Config                               0x080012db   Thumb Code    82  stm32f10x_tim.o(.text)
    TI3_Config                               0x0800133f   Thumb Code    66  stm32f10x_tim.o(.text)
    ETR_Config                               0x08001505   Thumb Code    26  stm32f10x_tim.o(.text)
    .text                                    0x080018ac   Section        0  stm32f10x_i2c.o(.text)
    .text                                    0x08001cc4   Section        0  stm32f10x_adc.o(.text)
    .text                                    0x080020e4   Section        0  stm32f10x_exti.o(.text)
    .text                                    0x08002208   Section        0  stm32f10x_dma.o(.text)
    .text                                    0x08002394   Section        0  serial.o(.text)
    .text                                    0x0800257c   Section        0  timertest.o(.text)
    .text                                    0x08002674   Section        0  main.o(.text)
    .text                                    0x0800275c   Section        0  my_init.o(.text)
    .text                                    0x080027dc   Section        0  tasks.o(.text)
    prvInitialiseTaskLists                   0x080027dd   Thumb Code    70  tasks.o(.text)
    prvAddNewTaskToReadyList                 0x08002823   Thumb Code   150  tasks.o(.text)
    prvInitialiseNewTask                     0x080028b9   Thumb Code   128  tasks.o(.text)
    prvResetNextTaskUnblockTime              0x08002999   Thumb Code    42  tasks.o(.text)
    prvDeleteTCB                             0x080029c3   Thumb Code    18  tasks.o(.text)
    prvAddCurrentTaskToDelayedList           0x08002c85   Thumb Code   124  tasks.o(.text)
    prvTaskIsTaskSuspended                   0x08002fbb   Thumb Code    56  tasks.o(.text)
    prvCheckTasksWaitingTermination          0x0800311f   Thumb Code    86  tasks.o(.text)
    prvIdleTask                              0x08003175   Thumb Code    32  tasks.o(.text)
    .text                                    0x0800377c   Section        0  list.o(.text)
    .text                                    0x08003810   Section        0  queue.o(.text)
    prvInitialiseNewQueue                    0x0800388b   Thumb Code    38  queue.o(.text)
    prvUnlockQueue                           0x080038e9   Thumb Code   126  queue.o(.text)
    prvIsQueueFull                           0x08003967   Thumb Code    30  queue.o(.text)
    prvCopyDataToQueue                       0x08003985   Thumb Code   106  queue.o(.text)
    prvIsQueueEmpty                          0x08003c01   Thumb Code    26  queue.o(.text)
    prvCopyDataFromQueue                     0x08003c1b   Thumb Code    46  queue.o(.text)
    .text                                    0x08003eb0   Section        0  port.o(.text)
    prvTaskExitError                         0x08003eb1   Thumb Code    22  port.o(.text)
    .text                                    0x08003f98   Section        0  heap_2.o(.text)
    prvHeapInit                              0x08003f99   Thumb Code    42  heap_2.o(.text)
    .text                                    0x080040bc   Section        0  jerry_movement.o(.text)
    .text                                    0x08004378   Section        0  jerry_jobs.o(.text)
    .text                                    0x08004630   Section        0  my_mpu6050_handler.o(.text)
    .text                                    0x08004a44   Section        0  mpu6050.o(.text)
    .text                                    0x08004e54   Section        0  adc_handler.o(.text)
    .text                                    0x08004f78   Section        0  encoder.o(.text)
    .text                                    0x080050b0   Section        0  motor_ctrl.o(.text)
    .text                                    0x08005274   Section        0  adc_dma.o(.text)
    .text                                    0x080053d4   Section        0  my_serial.o(.text)
    .text                                    0x08005508   Section        0  my_blinky.o(.text)
    .text                                    0x080055d4   Section        0  tom_finder.o(.text)
    .text                                    0x0800563e   Section        0  tom_jobs.o(.text)
    .text                                    0x080056b6   Section        0  memcpya.o(.text)
    .text                                    0x080056da   Section        0  strlen.o(.text)
    .text                                    0x080056e8   Section        0  calloc.o(.text)
    .text                                    0x08005704   Section        0  fadd.o(.text)
    .text                                    0x080057b4   Section        0  fmul.o(.text)
    .text                                    0x08005818   Section        0  fdiv.o(.text)
    .text                                    0x08005894   Section        0  dadd.o(.text)
    .text                                    0x080059e2   Section        0  dmul.o(.text)
    .text                                    0x08005ac6   Section        0  ddiv.o(.text)
    .text                                    0x08005ba4   Section        0  fflti.o(.text)
    .text                                    0x08005bb6   Section        0  ffltui.o(.text)
    .text                                    0x08005bc0   Section        0  dflti.o(.text)
    .text                                    0x08005be2   Section        0  dfltui.o(.text)
    .text                                    0x08005bfc   Section        0  ffixi.o(.text)
    .text                                    0x08005c2e   Section        0  dfixi.o(.text)
    .text                                    0x08005c6c   Section        0  f2d.o(.text)
    .text                                    0x08005c94   Section       48  cdcmple.o(.text)
    .text                                    0x08005cc4   Section        0  d2f.o(.text)
    .text                                    0x08005cfc   Section       20  cfcmple.o(.text)
    .text                                    0x08005d10   Section       20  cfrcmple.o(.text)
    .text                                    0x08005d24   Section        0  uidiv.o(.text)
    .text                                    0x08005d50   Section        0  llshl.o(.text)
    .text                                    0x08005d6e   Section        0  llushr.o(.text)
    .text                                    0x08005d8e   Section        0  llsshr.o(.text)
    .text                                    0x08005db2   Section        0  iusefp.o(.text)
    .text                                    0x08005db2   Section        0  fepilogue.o(.text)
    .text                                    0x08005e20   Section        0  depilogue.o(.text)
    .text                                    0x08005eda   Section        0  dscalb.o(.text)
    .text                                    0x08005f08   Section        0  dsqrt.o(.text)
    .text                                    0x08005fac   Section       36  init.o(.text)
    i.__0sprintf$1                           0x08005fd0   Section        0  printf1.o(i.__0sprintf$1)
    i.__ARM_fpclassify                       0x08005ff8   Section        0  fpclassify.o(i.__ARM_fpclassify)
    i.__kernel_poly                          0x08006020   Section        0  poly.o(i.__kernel_poly)
    i.__mathlib_dbl_infnan                   0x080060ca   Section        0  dunder.o(i.__mathlib_dbl_infnan)
    i.__mathlib_dbl_invalid                  0x080060d0   Section        0  dunder.o(i.__mathlib_dbl_invalid)
    i.__mathlib_dbl_underflow                0x080060dc   Section        0  dunder.o(i.__mathlib_dbl_underflow)
    i.__scatterload_copy                     0x080060ec   Section       14  handlers.o(i.__scatterload_copy)
    i.__scatterload_null                     0x080060fa   Section        2  handlers.o(i.__scatterload_null)
    i.__scatterload_zeroinit                 0x080060fc   Section       14  handlers.o(i.__scatterload_zeroinit)
    i.__set_errno                            0x0800610c   Section        0  errno.o(i.__set_errno)
    i._printf_core                           0x08006118   Section        0  printf1.o(i._printf_core)
    _printf_core                             0x08006119   Thumb Code   336  printf1.o(i._printf_core)
    i._sputc                                 0x0800626c   Section        0  printf1.o(i._sputc)
    _sputc                                   0x0800626d   Thumb Code    10  printf1.o(i._sputc)
    i.asin                                   0x08006278   Section        0  asin.o(i.asin)
    i.free                                   0x080064e8   Section        0  malloc.o(i.free)
    i.malloc                                 0x08006538   Section        0  malloc.o(i.malloc)
    i.sqrt                                   0x080065a4   Section        0  sqrt.o(i.sqrt)
    .constdata                               0x080065f0   Section       20  stm32f10x_rcc.o(.constdata)
    APBAHBPrescTable                         0x080065f0   Data          16  stm32f10x_rcc.o(.constdata)
    ADCPrescTable                            0x08006600   Data           4  stm32f10x_rcc.o(.constdata)
    .constdata                               0x08006604   Section       16  stm32f10x_tim.o(.constdata)
    Tab_OCModeMask                           0x08006604   Data           8  stm32f10x_tim.o(.constdata)
    Tab_PolarityMask                         0x0800660c   Data           8  stm32f10x_tim.o(.constdata)
    .constdata                               0x08006618   Section       80  asin.o(.constdata)
    pS                                       0x08006618   Data          48  asin.o(.constdata)
    qS                                       0x08006648   Data          32  asin.o(.constdata)
    .data                                    0x20000000   Section        8  serial.o(.data)
    xRxedChars                               0x20000000   Data           4  serial.o(.data)
    xCharsForTx                              0x20000004   Data           4  serial.o(.data)
    .data                                    0x20000008   Section        8  timertest.o(.data)
    usLastCount                              0x2000000a   Data           2  timertest.o(.data)
    usSettleCount                            0x2000000c   Data           2  timertest.o(.data)
    usMaxDifference                          0x2000000e   Data           2  timertest.o(.data)
    .data                                    0x20000010   Section       60  tasks.o(.data)
    pxDelayedTaskList                        0x20000014   Data           4  tasks.o(.data)
    pxOverflowDelayedTaskList                0x20000018   Data           4  tasks.o(.data)
    uxDeletedTasksWaitingCleanUp             0x2000001c   Data           4  tasks.o(.data)
    uxCurrentNumberOfTasks                   0x20000020   Data           4  tasks.o(.data)
    xTickCount                               0x20000024   Data           4  tasks.o(.data)
    uxTopReadyPriority                       0x20000028   Data           4  tasks.o(.data)
    xSchedulerRunning                        0x2000002c   Data           4  tasks.o(.data)
    uxPendedTicks                            0x20000030   Data           4  tasks.o(.data)
    xYieldPending                            0x20000034   Data           4  tasks.o(.data)
    xNumOfOverflows                          0x20000038   Data           4  tasks.o(.data)
    uxTaskNumber                             0x2000003c   Data           4  tasks.o(.data)
    xNextTaskUnblockTime                     0x20000040   Data           4  tasks.o(.data)
    xIdleTaskHandle                          0x20000044   Data           4  tasks.o(.data)
    uxSchedulerSuspended                     0x20000048   Data           4  tasks.o(.data)
    .data                                    0x2000004c   Section        4  port.o(.data)
    uxCriticalNesting                        0x2000004c   Data           4  port.o(.data)
    .data                                    0x20000050   Section       24  heap_2.o(.data)
    xStart                                   0x20000050   Data           8  heap_2.o(.data)
    xEnd                                     0x20000058   Data           8  heap_2.o(.data)
    xFreeBytesRemaining                      0x20000060   Data           4  heap_2.o(.data)
    xHeapHasBeenInitialised                  0x20000064   Data           4  heap_2.o(.data)
    .data                                    0x20000068   Section       16  jerry_jobs.o(.data)
    adcStandard                              0x20000070   Data           4  jerry_jobs.o(.data)
    .data                                    0x20000078   Section       20  my_mpu6050_handler.o(.data)
    .data                                    0x2000008c   Section        4  adc_handler.o(.data)
    .data                                    0x20000090   Section        4  encoder.o(.data)
    .data                                    0x20000094   Section        4  mvars.o(.data)
    .data                                    0x20000098   Section        4  mvars.o(.data)
    .data                                    0x2000009c   Section        4  errno.o(.data)
    _errno                                   0x2000009c   Data           4  errno.o(.data)
    .bss                                     0x200000a0   Section       20  main.o(.bss)
    .bss                                     0x200000b4   Section      200  tasks.o(.bss)
    pxReadyTasksLists                        0x200000b4   Data         100  tasks.o(.bss)
    xDelayedTaskList1                        0x20000118   Data          20  tasks.o(.bss)
    xDelayedTaskList2                        0x2000012c   Data          20  tasks.o(.bss)
    xPendingReadyList                        0x20000140   Data          20  tasks.o(.bss)
    xTasksWaitingTermination                 0x20000154   Data          20  tasks.o(.bss)
    xSuspendedTaskList                       0x20000168   Data          20  tasks.o(.bss)
    .bss                                     0x2000017c   Section    17408  heap_2.o(.bss)
    ucHeap                                   0x2000017c   Data       17408  heap_2.o(.bss)
    .bss                                     0x2000457c   Section       36  jerry_movement.o(.bss)
    HEAP                                     0x200045a0   Section        0  stm32f10x.o(HEAP)
    STACK                                    0x200045a0   Section      512  stm32f10x.o(STACK)

    Global Symbols

    Symbol Name                              Value     Ov Type        Size  Object(Section)

    BuildAttributes$$THM_ISAv4$P$D$K$B$S$PE$A:L22UL41UL21$X:L11$S22US41US21$IEEE1$IW$USESV6$~STKCKD$USESV7$~SHL$OTIME$ROPI$IEEEX$EBA8$MICROLIB$REQ8$PRES8$EABIv2 0x00000000   Number         0  anon$$obj.o ABSOLUTE
    __ARM_use_no_argv                        0x00000000   Number         0  main.o ABSOLUTE
    _printf_a                                0x00000000   Number         0  stubs.o ABSOLUTE
    _printf_c                                0x00000000   Number         0  stubs.o ABSOLUTE
    _printf_charcount                        0x00000000   Number         0  stubs.o ABSOLUTE
    _printf_d                                0x00000000   Number         0  stubs.o ABSOLUTE
    _printf_e                                0x00000000   Number         0  stubs.o ABSOLUTE
    _printf_f                                0x00000000   Number         0  stubs.o ABSOLUTE
    _printf_flags                            0x00000000   Number         0  stubs.o ABSOLUTE
    _printf_fp_dec                           0x00000000   Number         0  stubs.o ABSOLUTE
    _printf_fp_hex                           0x00000000   Number         0  stubs.o ABSOLUTE
    _printf_g                                0x00000000   Number         0  stubs.o ABSOLUTE
    _printf_i                                0x00000000   Number         0  stubs.o ABSOLUTE
    _printf_int_dec                          0x00000000   Number         0  stubs.o ABSOLUTE
    _printf_l                                0x00000000   Number         0  stubs.o ABSOLUTE
    _printf_lc                               0x00000000   Number         0  stubs.o ABSOLUTE
    _printf_ll                               0x00000000   Number         0  stubs.o ABSOLUTE
    _printf_lld                              0x00000000   Number         0  stubs.o ABSOLUTE
    _printf_lli                              0x00000000   Number         0  stubs.o ABSOLUTE
    _printf_llo                              0x00000000   Number         0  stubs.o ABSOLUTE
    _printf_llu                              0x00000000   Number         0  stubs.o ABSOLUTE
    _printf_llx                              0x00000000   Number         0  stubs.o ABSOLUTE
    _printf_longlong_dec                     0x00000000   Number         0  stubs.o ABSOLUTE
    _printf_longlong_hex                     0x00000000   Number         0  stubs.o ABSOLUTE
    _printf_longlong_oct                     0x00000000   Number         0  stubs.o ABSOLUTE
    _printf_ls                               0x00000000   Number         0  stubs.o ABSOLUTE
    _printf_mbtowc                           0x00000000   Number         0  stubs.o ABSOLUTE
    _printf_n                                0x00000000   Number         0  stubs.o ABSOLUTE
    _printf_o                                0x00000000   Number         0  stubs.o ABSOLUTE
    _printf_p                                0x00000000   Number         0  stubs.o ABSOLUTE
    _printf_percent                          0x00000000   Number         0  stubs.o ABSOLUTE
    _printf_pre_padding                      0x00000000   Number         0  stubs.o ABSOLUTE
    _printf_return_value                     0x00000000   Number         0  stubs.o ABSOLUTE
    _printf_s                                0x00000000   Number         0  stubs.o ABSOLUTE
    _printf_sizespec                         0x00000000   Number         0  stubs.o ABSOLUTE
    _printf_str                              0x00000000   Number         0  stubs.o ABSOLUTE
    _printf_truncate_signed                  0x00000000   Number         0  stubs.o ABSOLUTE
    _printf_truncate_unsigned                0x00000000   Number         0  stubs.o ABSOLUTE
    _printf_u                                0x00000000   Number         0  stubs.o ABSOLUTE
    _printf_wc                               0x00000000   Number         0  stubs.o ABSOLUTE
    _printf_wctomb                           0x00000000   Number         0  stubs.o ABSOLUTE
    _printf_widthprec                        0x00000000   Number         0  stubs.o ABSOLUTE
    _printf_x                                0x00000000   Number         0  stubs.o ABSOLUTE
    __cpp_initialize__aeabi_                  - Undefined Weak Reference
    __cxa_finalize                            - Undefined Weak Reference
    __decompress                              - Undefined Weak Reference
    _clock_init                               - Undefined Weak Reference
    _microlib_exit                            - Undefined Weak Reference
    __Vectors                                0x08000000   Data           4  stm32f10x.o(RESET)
    __main                                   0x080000ed   Thumb Code     0  entry.o(.ARM.Collect$$$$00000000)
    _main_stk                                0x080000ed   Thumb Code     0  entry2.o(.ARM.Collect$$$$00000001)
    _main_scatterload                        0x080000f1   Thumb Code     0  entry5.o(.ARM.Collect$$$$00000004)
    __main_after_scatterload                 0x080000f5   Thumb Code     0  entry5.o(.ARM.Collect$$$$00000004)
    _main_clock                              0x080000f5   Thumb Code     0  entry7b.o(.ARM.Collect$$$$00000008)
    _main_cpp_init                           0x080000f5   Thumb Code     0  entry8b.o(.ARM.Collect$$$$0000000A)
    _main_init                               0x080000f5   Thumb Code     0  entry9a.o(.ARM.Collect$$$$0000000B)
    __rt_final_cpp                           0x080000fd   Thumb Code     0  entry10a.o(.ARM.Collect$$$$0000000D)
    __rt_final_exit                          0x080000fd   Thumb Code     0  entry11a.o(.ARM.Collect$$$$0000000F)
    vPortSVCHandler                          0x08000101   Thumb Code    32  port.o(.emb_text)
    __asm___6_port_c_39a90d8d__prvStartFirstTask 0x08000125   Thumb Code    28  port.o(.emb_text)
    xPortPendSVHandler                       0x08000145   Thumb Code    72  port.o(.emb_text)
    vPortGetIPSR                             0x08000191   Thumb Code     6  port.o(.emb_text)
    Reset_Handler                            0x08000199   Thumb Code     4  stm32f10x.o(.text)
    NMI_Handler                              0x0800019d   Thumb Code     2  stm32f10x.o(.text)
    HardFault_Handler                        0x0800019f   Thumb Code     2  stm32f10x.o(.text)
    MemManage_Handler                        0x080001a1   Thumb Code     2  stm32f10x.o(.text)
    BusFault_Handler                         0x080001a3   Thumb Code     2  stm32f10x.o(.text)
    UsageFault_Handler                       0x080001a5   Thumb Code     2  stm32f10x.o(.text)
    SVC_Handler                              0x080001a7   Thumb Code     2  stm32f10x.o(.text)
    DebugMon_Handler                         0x080001a9   Thumb Code     2  stm32f10x.o(.text)
    PendSV_Handler                           0x080001ab   Thumb Code     2  stm32f10x.o(.text)
    SysTick_Handler                          0x080001ad   Thumb Code     2  stm32f10x.o(.text)
    ADC_IRQHandler                           0x080001af   Thumb Code     0  stm32f10x.o(.text)
    CAN_RX1_IRQHandler                       0x080001af   Thumb Code     0  stm32f10x.o(.text)
    CAN_SCE_IRQHandler                       0x080001af   Thumb Code     0  stm32f10x.o(.text)
    DMAChannel1_IRQHandler                   0x080001af   Thumb Code     0  stm32f10x.o(.text)
    DMAChannel2_IRQHandler                   0x080001af   Thumb Code     0  stm32f10x.o(.text)
    DMAChannel3_IRQHandler                   0x080001af   Thumb Code     0  stm32f10x.o(.text)
    DMAChannel4_IRQHandler                   0x080001af   Thumb Code     0  stm32f10x.o(.text)
    DMAChannel5_IRQHandler                   0x080001af   Thumb Code     0  stm32f10x.o(.text)
    DMAChannel6_IRQHandler                   0x080001af   Thumb Code     0  stm32f10x.o(.text)
    DMAChannel7_IRQHandler                   0x080001af   Thumb Code     0  stm32f10x.o(.text)
    EXTI0_IRQHandler                         0x080001af   Thumb Code     0  stm32f10x.o(.text)
    EXTI15_10_IRQHandler                     0x080001af   Thumb Code     0  stm32f10x.o(.text)
    EXTI1_IRQHandler                         0x080001af   Thumb Code     0  stm32f10x.o(.text)
    EXTI2_IRQHandler                         0x080001af   Thumb Code     0  stm32f10x.o(.text)
    EXTI3_IRQHandler                         0x080001af   Thumb Code     0  stm32f10x.o(.text)
    EXTI9_5_IRQHandler                       0x080001af   Thumb Code     0  stm32f10x.o(.text)
    FLASH_IRQHandler                         0x080001af   Thumb Code     0  stm32f10x.o(.text)
    I2C1_ER_IRQHandler                       0x080001af   Thumb Code     0  stm32f10x.o(.text)
    I2C1_EV_IRQHandler                       0x080001af   Thumb Code     0  stm32f10x.o(.text)
    I2C2_ER_IRQHandler                       0x080001af   Thumb Code     0  stm32f10x.o(.text)
    I2C2_EV_IRQHandler                       0x080001af   Thumb Code     0  stm32f10x.o(.text)
    PVD_IRQHandler                           0x080001af   Thumb Code     0  stm32f10x.o(.text)
    RCC_IRQHandler                           0x080001af   Thumb Code     0  stm32f10x.o(.text)
    RTCAlarm_IRQHandler                      0x080001af   Thumb Code     0  stm32f10x.o(.text)
    RTC_IRQHandler                           0x080001af   Thumb Code     0  stm32f10x.o(.text)
    SPI1_IRQHandler                          0x080001af   Thumb Code     0  stm32f10x.o(.text)
    SPI2_IRQHandler                          0x080001af   Thumb Code     0  stm32f10x.o(.text)
    TAMPER_IRQHandler                        0x080001af   Thumb Code     0  stm32f10x.o(.text)
    TIM1_BRK_IRQHandler                      0x080001af   Thumb Code     0  stm32f10x.o(.text)
    TIM1_CC_IRQHandler                       0x080001af   Thumb Code     0  stm32f10x.o(.text)
    TIM1_TRG_COM_IRQHandler                  0x080001af   Thumb Code     0  stm32f10x.o(.text)
    TIM1_UP_IRQHandler                       0x080001af   Thumb Code     0  stm32f10x.o(.text)
    TIM2_IRQHandler                          0x080001af   Thumb Code     0  stm32f10x.o(.text)
    TIM3_IRQHandler                          0x080001af   Thumb Code     0  stm32f10x.o(.text)
    TIM4_IRQHandler                          0x080001af   Thumb Code     0  stm32f10x.o(.text)
    USART1_IRQHandler                        0x080001af   Thumb Code     0  stm32f10x.o(.text)
    USART2_IRQHandler                        0x080001af   Thumb Code     0  stm32f10x.o(.text)
    USART3_IRQHandler                        0x080001af   Thumb Code     0  stm32f10x.o(.text)
    USBWakeUp_IRQHandler                     0x080001af   Thumb Code     0  stm32f10x.o(.text)
    USB_HP_CAN_TX_IRQHandler                 0x080001af   Thumb Code     0  stm32f10x.o(.text)
    USB_LP_CAN_RX0_IRQHandler                0x080001af   Thumb Code     0  stm32f10x.o(.text)
    WWDG_IRQHandler                          0x080001af   Thumb Code     0  stm32f10x.o(.text)
    __WFI                                    0x080001b5   Thumb Code     0  cortexm3_macro_rvds.o(.text)
    __WFE                                    0x080001b9   Thumb Code     0  cortexm3_macro_rvds.o(.text)
    __SEV                                    0x080001bd   Thumb Code     0  cortexm3_macro_rvds.o(.text)
    __ISB                                    0x080001c1   Thumb Code     0  cortexm3_macro_rvds.o(.text)
    __DSB                                    0x080001c7   Thumb Code     0  cortexm3_macro_rvds.o(.text)
    __DMB                                    0x080001cd   Thumb Code     0  cortexm3_macro_rvds.o(.text)
    __SVC                                    0x080001d3   Thumb Code     0  cortexm3_macro_rvds.o(.text)
    __MRS_CONTROL                            0x080001d7   Thumb Code     0  cortexm3_macro_rvds.o(.text)
    __MSR_CONTROL                            0x080001dd   Thumb Code     0  cortexm3_macro_rvds.o(.text)
    __MRS_PSP                                0x080001e7   Thumb Code     0  cortexm3_macro_rvds.o(.text)
    __MSR_PSP                                0x080001ed   Thumb Code     0  cortexm3_macro_rvds.o(.text)
    __MRS_MSP                                0x080001f3   Thumb Code     0  cortexm3_macro_rvds.o(.text)
    __MSR_MSP                                0x080001f9   Thumb Code     0  cortexm3_macro_rvds.o(.text)
    __SETPRIMASK                             0x080001ff   Thumb Code     0  cortexm3_macro_rvds.o(.text)
    __RESETPRIMASK                           0x08000203   Thumb Code     0  cortexm3_macro_rvds.o(.text)
    __SETFAULTMASK                           0x08000207   Thumb Code     0  cortexm3_macro_rvds.o(.text)
    __RESETFAULTMASK                         0x0800020b   Thumb Code     0  cortexm3_macro_rvds.o(.text)
    __BASEPRICONFIG                          0x0800020f   Thumb Code     0  cortexm3_macro_rvds.o(.text)
    __GetBASEPRI                             0x08000215   Thumb Code     0  cortexm3_macro_rvds.o(.text)
    __REV_HalfWord                           0x0800021b   Thumb Code     0  cortexm3_macro_rvds.o(.text)
    __REV_Word                               0x0800021f   Thumb Code     0  cortexm3_macro_rvds.o(.text)
    USART_DeInit                             0x08000225   Thumb Code    88  stm32f10x_usart.o(.text)
    USART_Init                               0x0800027d   Thumb Code   168  stm32f10x_usart.o(.text)
    USART_StructInit                         0x08000325   Thumb Code    32  stm32f10x_usart.o(.text)
    USART_Cmd                                0x08000345   Thumb Code    24  stm32f10x_usart.o(.text)
    USART_ITConfig                           0x0800035d   Thumb Code    64  stm32f10x_usart.o(.text)
    USART_DMACmd                             0x0800039d   Thumb Code    18  stm32f10x_usart.o(.text)
    USART_SetAddress                         0x080003af   Thumb Code    18  stm32f10x_usart.o(.text)
    USART_WakeUpConfig                       0x080003c1   Thumb Code    18  stm32f10x_usart.o(.text)
    USART_ReceiverWakeUpCmd                  0x080003d3   Thumb Code    24  stm32f10x_usart.o(.text)
    USART_LINBreakDetectLengthConfig         0x080003eb   Thumb Code    18  stm32f10x_usart.o(.text)
    USART_LINCmd                             0x080003fd   Thumb Code    24  stm32f10x_usart.o(.text)
    USART_SendData                           0x08000415   Thumb Code     8  stm32f10x_usart.o(.text)
    USART_ReceiveData                        0x0800041d   Thumb Code    10  stm32f10x_usart.o(.text)
    USART_SendBreak                          0x08000427   Thumb Code    10  stm32f10x_usart.o(.text)
    USART_SetGuardTime                       0x08000431   Thumb Code    16  stm32f10x_usart.o(.text)
    USART_SetPrescaler                       0x08000441   Thumb Code    16  stm32f10x_usart.o(.text)
    USART_SmartCardCmd                       0x08000451   Thumb Code    24  stm32f10x_usart.o(.text)
    USART_SmartCardNACKCmd                   0x08000469   Thumb Code    24  stm32f10x_usart.o(.text)
    USART_HalfDuplexCmd                      0x08000481   Thumb Code    24  stm32f10x_usart.o(.text)
    USART_IrDAConfig                         0x08000499   Thumb Code    18  stm32f10x_usart.o(.text)
    USART_IrDACmd                            0x080004ab   Thumb Code    24  stm32f10x_usart.o(.text)
    USART_GetFlagStatus                      0x080004c3   Thumb Code    18  stm32f10x_usart.o(.text)
    USART_ClearFlag                          0x080004d5   Thumb Code     8  stm32f10x_usart.o(.text)
    USART_GetITStatus                        0x080004dd   Thumb Code    76  stm32f10x_usart.o(.text)
    USART_ClearITPendingBit                  0x08000529   Thumb Code    22  stm32f10x_usart.o(.text)
    GPIO_DeInit                              0x08000549   Thumb Code   138  stm32f10x_gpio.o(.text)
    GPIO_AFIODeInit                          0x080005d3   Thumb Code    20  stm32f10x_gpio.o(.text)
    GPIO_Init                                0x080005e7   Thumb Code   278  stm32f10x_gpio.o(.text)
    GPIO_StructInit                          0x080006fd   Thumb Code    16  stm32f10x_gpio.o(.text)
    GPIO_ReadInputDataBit                    0x0800070d   Thumb Code    18  stm32f10x_gpio.o(.text)
    GPIO_ReadInputData                       0x0800071f   Thumb Code     8  stm32f10x_gpio.o(.text)
    GPIO_ReadOutputDataBit                   0x08000727   Thumb Code    18  stm32f10x_gpio.o(.text)
    GPIO_ReadOutputData                      0x08000739   Thumb Code     8  stm32f10x_gpio.o(.text)
    GPIO_WriteBit                            0x08000741   Thumb Code    10  stm32f10x_gpio.o(.text)
    GPIO_Write                               0x0800074b   Thumb Code     4  stm32f10x_gpio.o(.text)
    GPIO_PinLockConfig                       0x0800074f   Thumb Code    18  stm32f10x_gpio.o(.text)
    GPIO_EventOutputConfig                   0x08000761   Thumb Code    26  stm32f10x_gpio.o(.text)
    GPIO_EventOutputCmd                      0x0800077b   Thumb Code     6  stm32f10x_gpio.o(.text)
    GPIO_PinRemapConfig                      0x08000781   Thumb Code    86  stm32f10x_gpio.o(.text)
    GPIO_EXTILineConfig                      0x080007d7   Thumb Code    66  stm32f10x_gpio.o(.text)
    NVIC_DeInit                              0x08000829   Thumb Code    54  stm32f10x_nvic.o(.text)
    NVIC_SCBDeInit                           0x0800085f   Thumb Code    76  stm32f10x_nvic.o(.text)
    NVIC_PriorityGroupConfig                 0x080008ab   Thumb Code    12  stm32f10x_nvic.o(.text)
    NVIC_Init                                0x080008b7   Thumb Code   152  stm32f10x_nvic.o(.text)
    NVIC_StructInit                          0x0800094f   Thumb Code    12  stm32f10x_nvic.o(.text)
    NVIC_SETPRIMASK                          0x0800095b   Thumb Code     8  stm32f10x_nvic.o(.text)
    NVIC_RESETPRIMASK                        0x08000963   Thumb Code     8  stm32f10x_nvic.o(.text)
    NVIC_SETFAULTMASK                        0x0800096b   Thumb Code     8  stm32f10x_nvic.o(.text)
    NVIC_RESETFAULTMASK                      0x08000973   Thumb Code     8  stm32f10x_nvic.o(.text)
    NVIC_BASEPRICONFIG                       0x0800097b   Thumb Code    12  stm32f10x_nvic.o(.text)
    NVIC_GetBASEPRI                          0x08000987   Thumb Code     8  stm32f10x_nvic.o(.text)
    NVIC_GetCurrentPendingIRQChannel         0x0800098f   Thumb Code    10  stm32f10x_nvic.o(.text)
    NVIC_GetIRQChannelPendingBitStatus       0x08000999   Thumb Code    42  stm32f10x_nvic.o(.text)
    NVIC_SetIRQChannelPendingBit             0x080009c3   Thumb Code     6  stm32f10x_nvic.o(.text)
    NVIC_ClearIRQChannelPendingBit           0x080009c9   Thumb Code    20  stm32f10x_nvic.o(.text)
    NVIC_GetCurrentActiveHandler             0x080009dd   Thumb Code    10  stm32f10x_nvic.o(.text)
    NVIC_GetIRQChannelActiveBitStatus        0x080009e7   Thumb Code    42  stm32f10x_nvic.o(.text)
    NVIC_GetCPUID                            0x08000a11   Thumb Code     8  stm32f10x_nvic.o(.text)
    NVIC_SetVectorTable                      0x08000a19   Thumb Code    22  stm32f10x_nvic.o(.text)
    NVIC_GenerateSystemReset                 0x08000a2f   Thumb Code    12  stm32f10x_nvic.o(.text)
    NVIC_GenerateCoreReset                   0x08000a3b   Thumb Code    12  stm32f10x_nvic.o(.text)
    NVIC_SystemLPConfig                      0x08000a47   Thumb Code    34  stm32f10x_nvic.o(.text)
    NVIC_SystemHandlerConfig                 0x08000a69   Thumb Code    48  stm32f10x_nvic.o(.text)
    NVIC_SystemHandlerPriorityConfig         0x08000a99   Thumb Code   110  stm32f10x_nvic.o(.text)
    NVIC_GetSystemHandlerPendingBitStatus    0x08000b07   Thumb Code    44  stm32f10x_nvic.o(.text)
    NVIC_SetSystemHandlerPendingBit          0x08000b33   Thumb Code    22  stm32f10x_nvic.o(.text)
    NVIC_ClearSystemHandlerPendingBit        0x08000b49   Thumb Code    26  stm32f10x_nvic.o(.text)
    NVIC_GetSystemHandlerActiveBitStatus     0x08000b63   Thumb Code    42  stm32f10x_nvic.o(.text)
    NVIC_GetFaultHandlerSources              0x08000b8d   Thumb Code    66  stm32f10x_nvic.o(.text)
    NVIC_GetFaultAddress                     0x08000bcf   Thumb Code    28  stm32f10x_nvic.o(.text)
    RCC_DeInit                               0x08000c09   Thumb Code    78  stm32f10x_rcc.o(.text)
    RCC_HSEConfig                            0x08000c57   Thumb Code    70  stm32f10x_rcc.o(.text)
    RCC_AdjustHSICalibrationValue            0x08000c9d   Thumb Code    20  stm32f10x_rcc.o(.text)
    RCC_HSICmd                               0x08000cb1   Thumb Code     6  stm32f10x_rcc.o(.text)
    RCC_PLLConfig                            0x08000cb7   Thumb Code    24  stm32f10x_rcc.o(.text)
    RCC_PLLCmd                               0x08000ccf   Thumb Code     6  stm32f10x_rcc.o(.text)
    RCC_SYSCLKConfig                         0x08000cd5   Thumb Code    18  stm32f10x_rcc.o(.text)
    RCC_GetSYSCLKSource                      0x08000ce7   Thumb Code    10  stm32f10x_rcc.o(.text)
    RCC_HCLKConfig                           0x08000cf1   Thumb Code    18  stm32f10x_rcc.o(.text)
    RCC_PCLK1Config                          0x08000d03   Thumb Code    18  stm32f10x_rcc.o(.text)
    RCC_PCLK2Config                          0x08000d15   Thumb Code    20  stm32f10x_rcc.o(.text)
    RCC_ITConfig                             0x08000d29   Thumb Code    26  stm32f10x_rcc.o(.text)
    RCC_USBCLKConfig                         0x08000d43   Thumb Code     8  stm32f10x_rcc.o(.text)
    RCC_ADCCLKConfig                         0x08000d4b   Thumb Code    18  stm32f10x_rcc.o(.text)
    RCC_LSEConfig                            0x08000d5d   Thumb Code    50  stm32f10x_rcc.o(.text)
    RCC_LSICmd                               0x08000d8f   Thumb Code     6  stm32f10x_rcc.o(.text)
    RCC_RTCCLKConfig                         0x08000d95   Thumb Code    12  stm32f10x_rcc.o(.text)
    RCC_RTCCLKCmd                            0x08000da1   Thumb Code     8  stm32f10x_rcc.o(.text)
    RCC_GetClocksFreq                        0x08000da9   Thumb Code   192  stm32f10x_rcc.o(.text)
    RCC_AHBPeriphClockCmd                    0x08000e69   Thumb Code    26  stm32f10x_rcc.o(.text)
    RCC_APB2PeriphClockCmd                   0x08000e83   Thumb Code    26  stm32f10x_rcc.o(.text)
    RCC_APB1PeriphClockCmd                   0x08000e9d   Thumb Code    26  stm32f10x_rcc.o(.text)
    RCC_APB2PeriphResetCmd                   0x08000eb7   Thumb Code    26  stm32f10x_rcc.o(.text)
    RCC_APB1PeriphResetCmd                   0x08000ed1   Thumb Code    26  stm32f10x_rcc.o(.text)
    RCC_BackupResetCmd                       0x08000eeb   Thumb Code     8  stm32f10x_rcc.o(.text)
    RCC_ClockSecuritySystemCmd               0x08000ef3   Thumb Code     6  stm32f10x_rcc.o(.text)
    RCC_MCOConfig                            0x08000ef9   Thumb Code     6  stm32f10x_rcc.o(.text)
    RCC_GetFlagStatus                        0x08000eff   Thumb Code    56  stm32f10x_rcc.o(.text)
    RCC_ClearFlag                            0x08000f37   Thumb Code    14  stm32f10x_rcc.o(.text)
    RCC_GetITStatus                          0x08000f45   Thumb Code    20  stm32f10x_rcc.o(.text)
    RCC_ClearITPendingBit                    0x08000f59   Thumb Code     6  stm32f10x_rcc.o(.text)
    SysTick_CLKSourceConfig                  0x08000f85   Thumb Code    40  stm32f10x_systick.o(.text)
    SysTick_SetReload                        0x08000fad   Thumb Code     8  stm32f10x_systick.o(.text)
    SysTick_CounterCmd                       0x08000fb5   Thumb Code    52  stm32f10x_systick.o(.text)
    SysTick_ITConfig                         0x08000fe9   Thumb Code    38  stm32f10x_systick.o(.text)
    SysTick_GetCounter                       0x0800100f   Thumb Code     8  stm32f10x_systick.o(.text)
    SysTick_GetFlagStatus                    0x08001017   Thumb Code    50  stm32f10x_systick.o(.text)
    TIM_DeInit                               0x08001049   Thumb Code    84  stm32f10x_tim.o(.text)
    TIM_TimeBaseInit                         0x0800109d   Thumb Code    30  stm32f10x_tim.o(.text)
    TIM_OCInit                               0x080010bb   Thumb Code   214  stm32f10x_tim.o(.text)
    TIM_SetIC1Prescaler                      0x08001191   Thumb Code    18  stm32f10x_tim.o(.text)
    TIM_SetIC2Prescaler                      0x080011db   Thumb Code    26  stm32f10x_tim.o(.text)
    TIM_SetIC4Prescaler                      0x080012c1   Thumb Code    26  stm32f10x_tim.o(.text)
    TIM_SetIC3Prescaler                      0x0800132d   Thumb Code    18  stm32f10x_tim.o(.text)
    TIM_ICInit                               0x08001381   Thumb Code   126  stm32f10x_tim.o(.text)
    TIM_TimeBaseStructInit                   0x080013ff   Thumb Code    12  stm32f10x_tim.o(.text)
    TIM_OCStructInit                         0x0800140b   Thumb Code    12  stm32f10x_tim.o(.text)
    TIM_ICStructInit                         0x08001417   Thumb Code    34  stm32f10x_tim.o(.text)
    TIM_Cmd                                  0x08001439   Thumb Code    24  stm32f10x_tim.o(.text)
    TIM_ITConfig                             0x08001451   Thumb Code    18  stm32f10x_tim.o(.text)
    TIM_DMAConfig                            0x08001463   Thumb Code    22  stm32f10x_tim.o(.text)
    TIM_DMACmd                               0x08001479   Thumb Code    24  stm32f10x_tim.o(.text)
    TIM_InternalClockConfig                  0x08001491   Thumb Code    12  stm32f10x_tim.o(.text)
    TIM_SelectInputTrigger                   0x0800149d   Thumb Code    18  stm32f10x_tim.o(.text)
    TIM_ITRxExternalClockConfig              0x080014af   Thumb Code    24  stm32f10x_tim.o(.text)
    TIM_TIxExternalClockConfig               0x080014c7   Thumb Code    62  stm32f10x_tim.o(.text)
    TIM_ETRClockMode1Config                  0x0800151f   Thumb Code    64  stm32f10x_tim.o(.text)
    TIM_ETRClockMode2Config                  0x0800155f   Thumb Code    36  stm32f10x_tim.o(.text)
    TIM_PrescalerConfig                      0x08001583   Thumb Code    26  stm32f10x_tim.o(.text)
    TIM_CounterModeConfig                    0x0800159d   Thumb Code    18  stm32f10x_tim.o(.text)
    TIM_ForcedOC1Config                      0x080015af   Thumb Code    18  stm32f10x_tim.o(.text)
    TIM_ForcedOC2Config                      0x080015c1   Thumb Code    26  stm32f10x_tim.o(.text)
    TIM_ForcedOC3Config                      0x080015db   Thumb Code    18  stm32f10x_tim.o(.text)
    TIM_ForcedOC4Config                      0x080015ed   Thumb Code    26  stm32f10x_tim.o(.text)
    TIM_ARRPreloadConfig                     0x08001607   Thumb Code    24  stm32f10x_tim.o(.text)
    TIM_SelectCCDMA                          0x0800161f   Thumb Code    22  stm32f10x_tim.o(.text)
    TIM_OC1PreloadConfig                     0x08001635   Thumb Code    18  stm32f10x_tim.o(.text)
    TIM_OC2PreloadConfig                     0x08001647   Thumb Code    26  stm32f10x_tim.o(.text)
    TIM_OC3PreloadConfig                     0x08001661   Thumb Code    18  stm32f10x_tim.o(.text)
    TIM_OC4PreloadConfig                     0x08001673   Thumb Code    26  stm32f10x_tim.o(.text)
    TIM_OC1FastConfig                        0x0800168d   Thumb Code    18  stm32f10x_tim.o(.text)
    TIM_OC2FastConfig                        0x0800169f   Thumb Code    26  stm32f10x_tim.o(.text)
    TIM_OC3FastConfig                        0x080016b9   Thumb Code    18  stm32f10x_tim.o(.text)
    TIM_OC4FastConfig                        0x080016cb   Thumb Code    26  stm32f10x_tim.o(.text)
    TIM_UpdateDisableConfig                  0x080016e5   Thumb Code    24  stm32f10x_tim.o(.text)
    TIM_EncoderInterfaceConfig               0x080016fd   Thumb Code    66  stm32f10x_tim.o(.text)
    TIM_GenerateEvent                        0x0800173f   Thumb Code     8  stm32f10x_tim.o(.text)
    TIM_OC1PolarityConfig                    0x08001747   Thumb Code    18  stm32f10x_tim.o(.text)
    TIM_OC2PolarityConfig                    0x08001759   Thumb Code    26  stm32f10x_tim.o(.text)
    TIM_OC3PolarityConfig                    0x08001773   Thumb Code    26  stm32f10x_tim.o(.text)
    TIM_OC4PolarityConfig                    0x0800178d   Thumb Code    26  stm32f10x_tim.o(.text)
    TIM_UpdateRequestConfig                  0x080017a7   Thumb Code    26  stm32f10x_tim.o(.text)
    TIM_SelectHallSensor                     0x080017c1   Thumb Code    24  stm32f10x_tim.o(.text)
    TIM_SelectOnePulseMode                   0x080017d9   Thumb Code    18  stm32f10x_tim.o(.text)
    TIM_SelectOutputTrigger                  0x080017eb   Thumb Code    16  stm32f10x_tim.o(.text)
    TIM_SelectSlaveMode                      0x080017fb   Thumb Code    18  stm32f10x_tim.o(.text)
    TIM_SelectMasterSlaveMode                0x0800180d   Thumb Code    18  stm32f10x_tim.o(.text)
    TIM_SetAutoreload                        0x0800181f   Thumb Code     4  stm32f10x_tim.o(.text)
    TIM_SetCompare1                          0x08001823   Thumb Code     4  stm32f10x_tim.o(.text)
    TIM_SetCompare2                          0x08001827   Thumb Code     4  stm32f10x_tim.o(.text)
    TIM_SetCompare3                          0x0800182b   Thumb Code     4  stm32f10x_tim.o(.text)
    TIM_SetCompare4                          0x0800182f   Thumb Code     6  stm32f10x_tim.o(.text)
    TIM_SetClockDivision                     0x08001835   Thumb Code    14  stm32f10x_tim.o(.text)
    TIM_GetCapture1                          0x08001843   Thumb Code     6  stm32f10x_tim.o(.text)
    TIM_GetCapture2                          0x08001849   Thumb Code     6  stm32f10x_tim.o(.text)
    TIM_GetCapture3                          0x0800184f   Thumb Code     6  stm32f10x_tim.o(.text)
    TIM_GetCapture4                          0x08001855   Thumb Code     8  stm32f10x_tim.o(.text)
    TIM_GetCounter                           0x0800185d   Thumb Code     6  stm32f10x_tim.o(.text)
    TIM_GetPrescaler                         0x08001863   Thumb Code     6  stm32f10x_tim.o(.text)
    TIM_GetFlagStatus                        0x08001869   Thumb Code    18  stm32f10x_tim.o(.text)
    TIM_ClearFlag                            0x0800187b   Thumb Code     8  stm32f10x_tim.o(.text)
    TIM_GetITStatus                          0x08001883   Thumb Code    34  stm32f10x_tim.o(.text)
    TIM_ClearITPendingBit                    0x080018a5   Thumb Code     8  stm32f10x_tim.o(.text)
    I2C_DeInit                               0x080018ad   Thumb Code    64  stm32f10x_i2c.o(.text)
    I2C_Cmd                                  0x080018ed   Thumb Code    24  stm32f10x_i2c.o(.text)
    I2C_Init                                 0x08001905   Thumb Code   220  stm32f10x_i2c.o(.text)
    I2C_StructInit                           0x080019e1   Thumb Code    30  stm32f10x_i2c.o(.text)
    I2C_DMACmd                               0x080019ff   Thumb Code    24  stm32f10x_i2c.o(.text)
    I2C_DMALastTransferCmd                   0x08001a17   Thumb Code    24  stm32f10x_i2c.o(.text)
    I2C_GenerateSTART                        0x08001a2f   Thumb Code    24  stm32f10x_i2c.o(.text)
    I2C_GenerateSTOP                         0x08001a47   Thumb Code    24  stm32f10x_i2c.o(.text)
    I2C_AcknowledgeConfig                    0x08001a5f   Thumb Code    24  stm32f10x_i2c.o(.text)
    I2C_OwnAddress2Config                    0x08001a77   Thumb Code    22  stm32f10x_i2c.o(.text)
    I2C_DualAddressCmd                       0x08001a8d   Thumb Code    24  stm32f10x_i2c.o(.text)
    I2C_GeneralCallCmd                       0x08001aa5   Thumb Code    24  stm32f10x_i2c.o(.text)
    I2C_ITConfig                             0x08001abd   Thumb Code    18  stm32f10x_i2c.o(.text)
    I2C_SendData                             0x08001acf   Thumb Code     4  stm32f10x_i2c.o(.text)
    I2C_ReceiveData                          0x08001ad3   Thumb Code     8  stm32f10x_i2c.o(.text)
    I2C_Send7bitAddress                      0x08001adb   Thumb Code    18  stm32f10x_i2c.o(.text)
    I2C_ReadRegister                         0x08001aed   Thumb Code     6  stm32f10x_i2c.o(.text)
    I2C_SoftwareResetCmd                     0x08001af3   Thumb Code    22  stm32f10x_i2c.o(.text)
    I2C_SMBusAlertConfig                     0x08001b09   Thumb Code    28  stm32f10x_i2c.o(.text)
    I2C_TransmitPEC                          0x08001b25   Thumb Code    10  stm32f10x_i2c.o(.text)
    I2C_PECPositionConfig                    0x08001b2f   Thumb Code    28  stm32f10x_i2c.o(.text)
    I2C_CalculatePEC                         0x08001b4b   Thumb Code    24  stm32f10x_i2c.o(.text)
    I2C_GetPEC                               0x08001b63   Thumb Code     8  stm32f10x_i2c.o(.text)
    I2C_ARPCmd                               0x08001b6b   Thumb Code    24  stm32f10x_i2c.o(.text)
    I2C_StretchClockCmd                      0x08001b83   Thumb Code    24  stm32f10x_i2c.o(.text)
    I2C_FastModeDutyCycleConfig              0x08001b9b   Thumb Code    28  stm32f10x_i2c.o(.text)
    I2C_GetLastEvent                         0x08001bb7   Thumb Code    26  stm32f10x_i2c.o(.text)
    I2C_CheckEvent                           0x08001bd1   Thumb Code    38  stm32f10x_i2c.o(.text)
    I2C_GetFlagStatus                        0x08001bf7   Thumb Code    40  stm32f10x_i2c.o(.text)
    I2C_ClearFlag                            0x08001c1f   Thumb Code    54  stm32f10x_i2c.o(.text)
    I2C_GetITStatus                          0x08001c55   Thumb Code    40  stm32f10x_i2c.o(.text)
    I2C_ClearITPendingBit                    0x08001c7d   Thumb Code    70  stm32f10x_i2c.o(.text)
    ADC_DeInit                               0x08001cc5   Thumb Code    64  stm32f10x_adc.o(.text)
    ADC_Init                                 0x08001d05   Thumb Code    70  stm32f10x_adc.o(.text)
    ADC_StructInit                           0x08001d4b   Thumb Code    18  stm32f10x_adc.o(.text)
    ADC_Cmd                                  0x08001d5d   Thumb Code    22  stm32f10x_adc.o(.text)
    ADC_DMACmd                               0x08001d73   Thumb Code    24  stm32f10x_adc.o(.text)
    ADC_ITConfig                             0x08001d8b   Thumb Code    24  stm32f10x_adc.o(.text)
    ADC_ResetCalibration                     0x08001da3   Thumb Code    10  stm32f10x_adc.o(.text)
    ADC_GetResetCalibrationStatus            0x08001dad   Thumb Code    20  stm32f10x_adc.o(.text)
    ADC_StartCalibration                     0x08001dc1   Thumb Code    10  stm32f10x_adc.o(.text)
    ADC_GetCalibrationStatus                 0x08001dcb   Thumb Code    20  stm32f10x_adc.o(.text)
    ADC_SoftwareStartConvCmd                 0x08001ddf   Thumb Code    22  stm32f10x_adc.o(.text)
    ADC_GetSoftwareStartConvStatus           0x08001df5   Thumb Code    20  stm32f10x_adc.o(.text)
    ADC_DiscModeChannelCountConfig           0x08001e09   Thumb Code    26  stm32f10x_adc.o(.text)
    ADC_DiscModeCmd                          0x08001e23   Thumb Code    22  stm32f10x_adc.o(.text)
    ADC_RegularChannelConfig                 0x08001e39   Thumb Code   184  stm32f10x_adc.o(.text)
    ADC_ExternalTrigConvCmd                  0x08001ef1   Thumb Code    22  stm32f10x_adc.o(.text)
    ADC_GetConversionValue                   0x08001f07   Thumb Code     8  stm32f10x_adc.o(.text)
    ADC_GetDualModeConversionValue           0x08001f0f   Thumb Code     6  stm32f10x_adc.o(.text)
    ADC_AutoInjectedConvCmd                  0x08001f15   Thumb Code    22  stm32f10x_adc.o(.text)
    ADC_InjectedDiscModeCmd                  0x08001f2b   Thumb Code    22  stm32f10x_adc.o(.text)
    ADC_ExternalTrigInjectedConvConfig       0x08001f41   Thumb Code    16  stm32f10x_adc.o(.text)
    ADC_ExternalTrigInjectedConvCmd          0x08001f51   Thumb Code    22  stm32f10x_adc.o(.text)
    ADC_SoftwareStartInjectedConvCmd         0x08001f67   Thumb Code    22  stm32f10x_adc.o(.text)
    ADC_GetSoftwareStartInjectedConvCmdStatus 0x08001f7d   Thumb Code    20  stm32f10x_adc.o(.text)
    ADC_InjectedChannelConfig                0x08001f91   Thumb Code   130  stm32f10x_adc.o(.text)
    ADC_InjectedSequencerLengthConfig        0x08002013   Thumb Code    26  stm32f10x_adc.o(.text)
    ADC_SetInjectedOffset                    0x0800202d   Thumb Code     4  stm32f10x_adc.o(.text)
    ADC_GetInjectedConversionValue           0x08002031   Thumb Code    10  stm32f10x_adc.o(.text)
    ADC_AnalogWatchdogCmd                    0x0800203b   Thumb Code    16  stm32f10x_adc.o(.text)
    ADC_AnalogWatchdogThresholdsConfig       0x0800204b   Thumb Code     6  stm32f10x_adc.o(.text)
    ADC_AnalogWatchdogSingleChannelConfig    0x08002051   Thumb Code    16  stm32f10x_adc.o(.text)
    ADC_TempSensorCmd                        0x08002061   Thumb Code    38  stm32f10x_adc.o(.text)
    ADC_GetFlagStatus                        0x08002087   Thumb Code    18  stm32f10x_adc.o(.text)
    ADC_ClearFlag                            0x08002099   Thumb Code     8  stm32f10x_adc.o(.text)
    ADC_GetITStatus                          0x080020a1   Thumb Code    56  stm32f10x_adc.o(.text)
    ADC_ClearITPendingBit                    0x080020d9   Thumb Code    12  stm32f10x_adc.o(.text)
    EXTI_DeInit                              0x080020e5   Thumb Code    28  stm32f10x_exti.o(.text)
    EXTI_Init                                0x08002101   Thumb Code   148  stm32f10x_exti.o(.text)
    EXTI_StructInit                          0x08002195   Thumb Code    16  stm32f10x_exti.o(.text)
    EXTI_GenerateSWInterrupt                 0x080021a5   Thumb Code    16  stm32f10x_exti.o(.text)
    EXTI_GetFlagStatus                       0x080021b5   Thumb Code    22  stm32f10x_exti.o(.text)
    EXTI_ClearFlag                           0x080021cb   Thumb Code     8  stm32f10x_exti.o(.text)
    EXTI_GetITStatus                         0x080021d3   Thumb Code    34  stm32f10x_exti.o(.text)
    EXTI_ClearITPendingBit                   0x080021f5   Thumb Code     8  stm32f10x_exti.o(.text)
    DMA_Cmd                                  0x08002209   Thumb Code    22  stm32f10x_dma.o(.text)
    DMA_DeInit                               0x0800221f   Thumb Code   194  stm32f10x_dma.o(.text)
    DMA_Init                                 0x080022e1   Thumb Code    60  stm32f10x_dma.o(.text)
    DMA_StructInit                           0x0800231d   Thumb Code    26  stm32f10x_dma.o(.text)
    DMA_ITConfig                             0x08002337   Thumb Code    18  stm32f10x_dma.o(.text)
    DMA_GetCurrDataCounter                   0x08002349   Thumb Code     8  stm32f10x_dma.o(.text)
    DMA_GetFlagStatus                        0x08002351   Thumb Code    22  stm32f10x_dma.o(.text)
    DMA_ClearFlag                            0x08002367   Thumb Code     8  stm32f10x_dma.o(.text)
    DMA_GetITStatus                          0x0800236f   Thumb Code    22  stm32f10x_dma.o(.text)
    DMA_ClearITPendingBit                    0x08002385   Thumb Code     8  stm32f10x_dma.o(.text)
    xSerialPortInitMinimal                   0x08002395   Thumb Code   230  serial.o(.text)
    xSerialGetChar                           0x0800247b   Thumb Code    32  serial.o(.text)
    xSerialPutChar                           0x0800249b   Thumb Code    46  serial.o(.text)
    vSerialPutString                         0x080024c9   Thumb Code    38  serial.o(.text)
    vSerialClose                             0x080024ef   Thumb Code     2  serial.o(.text)
    vUARTInterruptHandler                    0x080024f1   Thumb Code   120  serial.o(.text)
    vSetupTimerTest                          0x0800257d   Thumb Code   156  timertest.o(.text)
    vTimer2IntHandler                        0x08002619   Thumb Code    72  timertest.o(.text)
    main                                     0x08002675   Thumb Code   162  main.o(.text)
    prvSetupHardware                         0x0800275d   Thumb Code   122  my_init.o(.text)
    xTaskCreate                              0x08002939   Thumb Code    96  tasks.o(.text)
    vTaskDelete                              0x080029d5   Thumb Code   166  tasks.o(.text)
    xTaskIncrementTick                       0x08002a7b   Thumb Code   238  tasks.o(.text)
    xTaskResumeAll                           0x08002b69   Thumb Code   284  tasks.o(.text)
    vTaskSuspendAll                          0x08002d01   Thumb Code    12  tasks.o(.text)
    vTaskDelayUntil                          0x08002d0d   Thumb Code   106  tasks.o(.text)
    vTaskDelay                               0x08002d77   Thumb Code    46  tasks.o(.text)
    uxTaskPriorityGet                        0x08002da5   Thumb Code    30  tasks.o(.text)
    uxTaskPriorityGetFromISR                 0x08002dc3   Thumb Code    52  tasks.o(.text)
    vTaskPrioritySet                         0x08002df7   Thumb Code   216  tasks.o(.text)
    vTaskSwitchContext                       0x08002ecf   Thumb Code    76  tasks.o(.text)
    vTaskSuspend                             0x08002f1b   Thumb Code   160  tasks.o(.text)
    vTaskResume                              0x08002ff3   Thumb Code   170  tasks.o(.text)
    xTaskResumeFromISR                       0x0800309d   Thumb Code   130  tasks.o(.text)
    vTaskStartScheduler                      0x08003195   Thumb Code    72  tasks.o(.text)
    vTaskEndScheduler                        0x080031dd   Thumb Code    32  tasks.o(.text)
    xTaskGetTickCount                        0x080031fd   Thumb Code     6  tasks.o(.text)
    xTaskGetTickCountFromISR                 0x08003203   Thumb Code     8  tasks.o(.text)
    uxTaskGetNumberOfTasks                   0x0800320b   Thumb Code     6  tasks.o(.text)
    pcTaskGetName                            0x08003211   Thumb Code    20  tasks.o(.text)
    vTaskPlaceOnEventList                    0x08003225   Thumb Code    28  tasks.o(.text)
    vTaskPlaceOnUnorderedEventList           0x08003241   Thumb Code    40  tasks.o(.text)
    xTaskRemoveFromEventList                 0x08003269   Thumb Code   104  tasks.o(.text)
    xTaskRemoveFromUnorderedEventList        0x080032d1   Thumb Code    94  tasks.o(.text)
    vTaskSetTimeOutState                     0x0800332f   Thumb Code    14  tasks.o(.text)
    xTaskCheckForTimeOut                     0x0800333d   Thumb Code    84  tasks.o(.text)
    vTaskMissedYield                         0x08003391   Thumb Code     8  tasks.o(.text)
    uxTaskResetEventItemValue                0x08003399   Thumb Code    24  tasks.o(.text)
    ulTaskNotifyTake                         0x080033b1   Thumb Code   108  tasks.o(.text)
    xTaskNotifyWait                          0x0800341d   Thumb Code   226  tasks.o(.text)
    xTaskGenericNotify                       0x080034ff   Thumb Code   178  tasks.o(.text)
    xTaskGenericNotifyFromISR                0x080035b1   Thumb Code   228  tasks.o(.text)
    vTaskNotifyGiveFromISR                   0x08003695   Thumb Code   154  tasks.o(.text)
    xTaskNotifyStateClear                    0x0800372f   Thumb Code    48  tasks.o(.text)
    vListInitialise                          0x0800377d   Thumb Code    26  list.o(.text)
    vListInitialiseItem                      0x08003797   Thumb Code     6  list.o(.text)
    vListInsertEnd                           0x0800379d   Thumb Code    24  list.o(.text)
    vListInsert                              0x080037b5   Thumb Code    52  list.o(.text)
    uxListRemove                             0x080037e9   Thumb Code    40  list.o(.text)
    xQueueGenericReset                       0x08003811   Thumb Code   122  queue.o(.text)
    xQueueGenericCreate                      0x080038b1   Thumb Code    56  queue.o(.text)
    xQueueGenericSend                        0x080039ef   Thumb Code   276  queue.o(.text)
    xQueueGenericSendFromISR                 0x08003b03   Thumb Code   134  queue.o(.text)
    xQueueGiveFromISR                        0x08003b89   Thumb Code   120  queue.o(.text)
    xQueueGenericReceive                     0x08003c49   Thumb Code   312  queue.o(.text)
    xQueueReceiveFromISR                     0x08003d81   Thumb Code   130  queue.o(.text)
    xQueuePeekFromISR                        0x08003e03   Thumb Code    74  queue.o(.text)
    uxQueueMessagesWaiting                   0x08003e4d   Thumb Code    18  queue.o(.text)
    uxQueueSpacesAvailable                   0x08003e5f   Thumb Code    24  queue.o(.text)
    uxQueueMessagesWaitingFromISR            0x08003e77   Thumb Code     6  queue.o(.text)
    vQueueDelete                             0x08003e7d   Thumb Code    14  queue.o(.text)
    xQueueIsQueueEmptyFromISR                0x08003e8b   Thumb Code    14  queue.o(.text)
    xQueueIsQueueFullFromISR                 0x08003e99   Thumb Code    18  queue.o(.text)
    pxPortInitialiseStack                    0x08003ec7   Thumb Code    30  port.o(.text)
    vPortSetupTimerInterrupt                 0x08003ee5   Thumb Code    14  port.o(.text)
    xPortStartScheduler                      0x08003ef3   Thumb Code    42  port.o(.text)
    vPortEndScheduler                        0x08003f1d   Thumb Code     2  port.o(.text)
    vPortEnterCritical                       0x08003f1f   Thumb Code    30  port.o(.text)
    vPortExitCritical                        0x08003f3d   Thumb Code    28  port.o(.text)
    xPortSysTickHandler                      0x08003f59   Thumb Code    48  port.o(.text)
    pvPortMalloc                             0x08003fc3   Thumb Code   166  heap_2.o(.text)
    vPortFree                                0x08004069   Thumb Code    56  heap_2.o(.text)
    xPortGetFreeHeapSize                     0x080040a1   Thumb Code     6  heap_2.o(.text)
    vPortInitialiseBlocks                    0x080040a7   Thumb Code     2  heap_2.o(.text)
    Jerry_Movemet_Init                       0x080040bd   Thumb Code   158  jerry_movement.o(.text)
    Jerry_Movement_CreateTaskes              0x0800415b   Thumb Code    64  jerry_movement.o(.text)
    Jerry_Movement_CheckPeripheral           0x0800419b   Thumb Code   154  jerry_movement.o(.text)
    vJerry_Movement_Task                     0x08004235   Thumb Code   238  jerry_movement.o(.text)
    Jerry_Jobs_Gyro                          0x08004379   Thumb Code    40  jerry_jobs.o(.text)
    Rolling_In_The_Deep                      0x080043a1   Thumb Code   112  jerry_jobs.o(.text)
    Jerry_Jobs_MovingHandler                 0x08004411   Thumb Code   160  jerry_jobs.o(.text)
    Jerry_Jobs_ADCInit                       0x080044b1   Thumb Code    76  jerry_jobs.o(.text)
    Jerry_Jobs_ADC                           0x080044fd   Thumb Code   198  jerry_jobs.o(.text)
    Jerry_Jobs_PID                           0x080045c3   Thumb Code    92  jerry_jobs.o(.text)
    Handle_AccelGyro_Init                    0x08004631   Thumb Code    12  my_mpu6050_handler.o(.text)
    CALIBRATE_AccelGyro                      0x0800463d   Thumb Code   144  my_mpu6050_handler.o(.text)
    Handle_AccelGyro_AngleCalculation        0x080046cd   Thumb Code   660  my_mpu6050_handler.o(.text)
    vHandle_AccelGyro_Task                   0x08004961   Thumb Code   164  my_mpu6050_handler.o(.text)
    MPU6050_I2C_ByteWrite                    0x08004a45   Thumb Code   112  mpu6050.o(.text)
    MPU6050_I2C_BufferRead                   0x08004ab5   Thumb Code   218  mpu6050.o(.text)
    MPU6050_WriteBit                         0x08004b8f   Thumb Code    64  mpu6050.o(.text)
    MPU6050_SetSleepModeStatus               0x08004bcf   Thumb Code    18  mpu6050.o(.text)
    MPU6050_WriteBits                        0x08004be1   Thumb Code    92  mpu6050.o(.text)
    MPU6050_SetFullScaleAccelRange           0x08004c3d   Thumb Code    20  mpu6050.o(.text)
    MPU6050_SetFullScaleGyroRange            0x08004c51   Thumb Code    20  mpu6050.o(.text)
    MPU6050_SetClockSource                   0x08004c65   Thumb Code    20  mpu6050.o(.text)
    MPU6050_Initialize                       0x08004c79   Thumb Code    28  mpu6050.o(.text)
    MPU6050_ReadBits                         0x08004c95   Thumb Code    82  mpu6050.o(.text)
    MPU6050_GetDeviceID                      0x08004ce7   Thumb Code    24  mpu6050.o(.text)
    MPU6050_TestConnection                   0x08004cff   Thumb Code    18  mpu6050.o(.text)
    MPU6050_GetFullScaleGyroRange            0x08004d11   Thumb Code    24  mpu6050.o(.text)
    MPU6050_GetFullScaleAccelRange           0x08004d29   Thumb Code    24  mpu6050.o(.text)
    MPU6050_ReadBit                          0x08004d41   Thumb Code    36  mpu6050.o(.text)
    MPU6050_GetSleepModeStatus               0x08004d65   Thumb Code    28  mpu6050.o(.text)
    MPU6050_GetRawAccelGyro                  0x08004d81   Thumb Code    86  mpu6050.o(.text)
    MPU6050_I2C_Init                         0x08004dd7   Thumb Code   126  mpu6050.o(.text)
    Handle_ADC_Init                          0x08004e55   Thumb Code    24  adc_handler.o(.text)
    Handle_ADC_Calibrate                     0x08004e6d   Thumb Code   118  adc_handler.o(.text)
    vHandle_ADC_Task                         0x08004ee3   Thumb Code   146  adc_handler.o(.text)
    GPIO_Configuration                       0x08004f79   Thumb Code    40  encoder.o(.text)
    NVIC_Configuration                       0x08004fa1   Thumb Code    40  encoder.o(.text)
    EXTI_Configuration                       0x08004fc9   Thumb Code    50  encoder.o(.text)
    encoder_init                             0x08004ffb   Thumb Code    16  encoder.o(.text)
    EXTI4_IRQHandler                         0x0800500b   Thumb Code    32  encoder.o(.text)
    vEncoder_task                            0x0800502b   Thumb Code   116  encoder.o(.text)
    GPIO_SetBit                              0x080050b1   Thumb Code    28  motor_ctrl.o(.text)
    RCC_Init_PWM                             0x080050cd   Thumb Code    28  motor_ctrl.o(.text)
    GPIO_Init_PWM                            0x080050e9   Thumb Code    56  motor_ctrl.o(.text)
    PWM_Init_Motor                           0x08005121   Thumb Code   126  motor_ctrl.o(.text)
    PWM_Speed_Motor                          0x0800519f   Thumb Code   192  motor_ctrl.o(.text)
    ADC_DMA_Config                           0x08005275   Thumb Code   244  adc_dma.o(.text)
    ADC_DMA_Start                            0x08005369   Thumb Code    78  adc_dma.o(.text)
    ADC_DMA_Stop                             0x080053b7   Thumb Code    14  adc_dma.o(.text)
    SERIAL_USART_Init                        0x080053d5   Thumb Code   114  my_serial.o(.text)
    delayTransmit                            0x08005447   Thumb Code    18  my_serial.o(.text)
    println                                  0x08005459   Thumb Code    82  my_serial.o(.text)
    print                                    0x080054ab   Thumb Code    60  my_serial.o(.text)
    print_int                                0x080054e7   Thumb Code    22  my_serial.o(.text)
    Led_Init                                 0x08005509   Thumb Code   144  my_blinky.o(.text)
    vLed_Task                                0x08005599   Thumb Code    48  my_blinky.o(.text)
    Tom_Finder_Init                          0x080055d5   Thumb Code     2  tom_finder.o(.text)
    vTom_Finder_Task                         0x080055d7   Thumb Code   104  tom_finder.o(.text)
    Tom_Jobs_FindWay                         0x0800563f   Thumb Code    60  tom_jobs.o(.text)
    Tom_Jobs_FindingHandler                  0x0800567b   Thumb Code    60  tom_jobs.o(.text)
    __aeabi_memcpy                           0x080056b7   Thumb Code    36  memcpya.o(.text)
    __aeabi_memcpy4                          0x080056b7   Thumb Code     0  memcpya.o(.text)
    __aeabi_memcpy8                          0x080056b7   Thumb Code     0  memcpya.o(.text)
    strlen                                   0x080056db   Thumb Code    14  strlen.o(.text)
    calloc                                   0x080056e9   Thumb Code    28  calloc.o(.text)
    __aeabi_fadd                             0x08005705   Thumb Code   164  fadd.o(.text)
    __aeabi_fsub                             0x080057a9   Thumb Code     6  fadd.o(.text)
    __aeabi_frsub                            0x080057af   Thumb Code     6  fadd.o(.text)
    __aeabi_fmul                             0x080057b5   Thumb Code   100  fmul.o(.text)
    __aeabi_fdiv                             0x08005819   Thumb Code   124  fdiv.o(.text)
    __aeabi_dadd                             0x08005895   Thumb Code   322  dadd.o(.text)
    __aeabi_dsub                             0x080059d7   Thumb Code     6  dadd.o(.text)
    __aeabi_drsub                            0x080059dd   Thumb Code     6  dadd.o(.text)
    __aeabi_dmul                             0x080059e3   Thumb Code   228  dmul.o(.text)
    __aeabi_ddiv                             0x08005ac7   Thumb Code   222  ddiv.o(.text)
    __aeabi_i2f                              0x08005ba5   Thumb Code    18  fflti.o(.text)
    __aeabi_ui2f                             0x08005bb7   Thumb Code    10  ffltui.o(.text)
    __aeabi_i2d                              0x08005bc1   Thumb Code    34  dflti.o(.text)
    __aeabi_ui2d                             0x08005be3   Thumb Code    26  dfltui.o(.text)
    __aeabi_f2iz                             0x08005bfd   Thumb Code    50  ffixi.o(.text)
    __aeabi_d2iz                             0x08005c2f   Thumb Code    62  dfixi.o(.text)
    __aeabi_f2d                              0x08005c6d   Thumb Code    38  f2d.o(.text)
    __aeabi_cdcmpeq                          0x08005c95   Thumb Code     0  cdcmple.o(.text)
    __aeabi_cdcmple                          0x08005c95   Thumb Code    48  cdcmple.o(.text)
    __aeabi_d2f                              0x08005cc5   Thumb Code    56  d2f.o(.text)
    __aeabi_cfcmpeq                          0x08005cfd   Thumb Code     0  cfcmple.o(.text)
    __aeabi_cfcmple                          0x08005cfd   Thumb Code    20  cfcmple.o(.text)
    __aeabi_cfrcmple                         0x08005d11   Thumb Code    20  cfrcmple.o(.text)
    __aeabi_uidiv                            0x08005d25   Thumb Code     0  uidiv.o(.text)
    __aeabi_uidivmod                         0x08005d25   Thumb Code    44  uidiv.o(.text)
    __aeabi_llsl                             0x08005d51   Thumb Code    30  llshl.o(.text)
    _ll_shift_l                              0x08005d51   Thumb Code     0  llshl.o(.text)
    __aeabi_llsr                             0x08005d6f   Thumb Code    32  llushr.o(.text)
    _ll_ushift_r                             0x08005d6f   Thumb Code     0  llushr.o(.text)
    __aeabi_lasr                             0x08005d8f   Thumb Code    36  llsshr.o(.text)
    _ll_sshift_r                             0x08005d8f   Thumb Code     0  llsshr.o(.text)
    __I$use$fp                               0x08005db3   Thumb Code     0  iusefp.o(.text)
    _float_round                             0x08005db3   Thumb Code    18  fepilogue.o(.text)
    _float_epilogue                          0x08005dc5   Thumb Code    92  fepilogue.o(.text)
    _double_round                            0x08005e21   Thumb Code    30  depilogue.o(.text)
    _double_epilogue                         0x08005e3f   Thumb Code   156  depilogue.o(.text)
    __ARM_scalbn                             0x08005edb   Thumb Code    46  dscalb.o(.text)
    scalbn                                   0x08005edb   Thumb Code     0  dscalb.o(.text)
    _dsqrt                                   0x08005f09   Thumb Code   162  dsqrt.o(.text)
    __scatterload                            0x08005fad   Thumb Code    28  init.o(.text)
    __scatterload_rt2                        0x08005fad   Thumb Code     0  init.o(.text)
    __0sprintf$1                             0x08005fd1   Thumb Code    34  printf1.o(i.__0sprintf$1)
    __1sprintf$1                             0x08005fd1   Thumb Code     0  printf1.o(i.__0sprintf$1)
    __2sprintf                               0x08005fd1   Thumb Code     0  printf1.o(i.__0sprintf$1)
    __ARM_fpclassify                         0x08005ff9   Thumb Code    40  fpclassify.o(i.__ARM_fpclassify)
    __kernel_poly                            0x08006021   Thumb Code   170  poly.o(i.__kernel_poly)
    __mathlib_dbl_infnan                     0x080060cb   Thumb Code     6  dunder.o(i.__mathlib_dbl_infnan)
    __mathlib_dbl_invalid                    0x080060d1   Thumb Code    12  dunder.o(i.__mathlib_dbl_invalid)
    __mathlib_dbl_underflow                  0x080060dd   Thumb Code    10  dunder.o(i.__mathlib_dbl_underflow)
    __scatterload_copy                       0x080060ed   Thumb Code    14  handlers.o(i.__scatterload_copy)
    __scatterload_null                       0x080060fb   Thumb Code     2  handlers.o(i.__scatterload_null)
    __scatterload_zeroinit                   0x080060fd   Thumb Code    14  handlers.o(i.__scatterload_zeroinit)
    __set_errno                              0x0800610d   Thumb Code     6  errno.o(i.__set_errno)
    asin                                     0x08006279   Thumb Code   572  asin.o(i.asin)
    free                                     0x080064e9   Thumb Code    76  malloc.o(i.free)
    malloc                                   0x08006539   Thumb Code    92  malloc.o(i.malloc)
    sqrt                                     0x080065a5   Thumb Code    76  sqrt.o(i.sqrt)
    Region$$Table$$Base                      0x08006668   Number         0  anon$$obj.o(Region$$Table)
    Region$$Table$$Limit                     0x08006688   Number         0  anon$$obj.o(Region$$Table)
    usMaxJitter                              0x20000008   Data           2  timertest.o(.data)
    pxCurrentTCB                             0x20000010   Data           4  tasks.o(.data)
    flag                                     0x20000068   Data           1  jerry_jobs.o(.data)
    time                                     0x2000006c   Data           4  jerry_jobs.o(.data)
    pre_error                                0x20000074   Data           4  jerry_jobs.o(.data)
    timeNow                                  0x20000078   Data           4  my_mpu6050_handler.o(.data)
    timeBefore                               0x2000007c   Data           4  my_mpu6050_handler.o(.data)
    angle_gyro                               0x20000080   Data           4  my_mpu6050_handler.o(.data)
    angle_accel                              0x20000084   Data           4  my_mpu6050_handler.o(.data)
    angle                                    0x20000088   Data           4  my_mpu6050_handler.o(.data)
    adcValue                                 0x2000008c   Data           4  adc_handler.o(.data)
    demxung                                  0x20000090   Data           4  encoder.o(.data)
    __microlib_freelist                      0x20000094   Data           4  mvars.o(.data)
    __microlib_freelist_initialised          0x20000098   Data           4  mvars.o(.data)
    comunicatePara                           0x200000a0   Data          20  main.o(.bss)
    periGyro                                 0x2000457c   Data          12  jerry_movement.o(.bss)
    periADC                                  0x20004588   Data          12  jerry_movement.o(.bss)
    periEncode                               0x20004594   Data          12  jerry_movement.o(.bss)
    __heap_base                              0x200045a0   Data           0  stm32f10x.o(HEAP)
    __heap_limit                             0x200045a0   Data           0  stm32f10x.o(HEAP)
    __initial_sp                             0x200047a0   Data           0  stm32f10x.o(STACK)



==============================================================================

Memory Map of the image

  Image Entry point : 0x080000ed

  Load Region LR_IROM1 (Base: 0x08000000, Size: 0x00006728, Max: 0x00010000, ABSOLUTE)

    Execution Region ER_IROM1 (Base: 0x08000000, Size: 0x00006688, Max: 0x00010000, ABSOLUTE)

    Base Addr    Size         Type   Attr      Idx    E Section Name        Object

    0x08000000   0x000000ec   Data   RO            3    RESET               stm32f10x.o
    0x080000ec   0x00000000   Code   RO          780  * .ARM.Collect$$$$00000000  mc_w.l(entry.o)
    0x080000ec   0x00000004   Code   RO         1132    .ARM.Collect$$$$00000001  mc_w.l(entry2.o)
    0x080000f0   0x00000004   Code   RO         1135    .ARM.Collect$$$$00000004  mc_w.l(entry5.o)
    0x080000f4   0x00000000   Code   RO         1137    .ARM.Collect$$$$00000008  mc_w.l(entry7b.o)
    0x080000f4   0x00000000   Code   RO         1139    .ARM.Collect$$$$0000000A  mc_w.l(entry8b.o)
    0x080000f4   0x00000008   Code   RO         1140    .ARM.Collect$$$$0000000B  mc_w.l(entry9a.o)
    0x080000fc   0x00000000   Code   RO         1142    .ARM.Collect$$$$0000000D  mc_w.l(entry10a.o)
    0x080000fc   0x00000000   Code   RO         1144    .ARM.Collect$$$$0000000F  mc_w.l(entry11a.o)
    0x080000fc   0x00000004   Code   RO         1133    .ARM.Collect$$$$00002712  mc_w.l(entry2.o)
    0x08000100   0x00000096   Code   RO          481    .emb_text           port.o
    0x08000196   0x00000002   PAD
    0x08000198   0x0000001c   Code   RO            4    .text               stm32f10x.o
    0x080001b4   0x0000006e   Code   RO           10    .text               cortexm3_macro_rvds.o
    0x08000222   0x00000002   PAD
    0x08000224   0x00000324   Code   RO           13    .text               stm32f10x_usart.o
    0x08000548   0x000002e0   Code   RO           44    .text               stm32f10x_gpio.o
    0x08000828   0x000003e0   Code   RO          119    .text               stm32f10x_nvic.o
    0x08000c08   0x0000037c   Code   RO          131    .text               stm32f10x_rcc.o
    0x08000f84   0x000000c4   Code   RO          157    .text               stm32f10x_systick.o
    0x08001048   0x00000864   Code   RO          169    .text               stm32f10x_tim.o
    0x080018ac   0x00000416   Code   RO          186    .text               stm32f10x_i2c.o
    0x08001cc2   0x00000002   PAD
    0x08001cc4   0x00000420   Code   RO          201    .text               stm32f10x_adc.o
    0x080020e4   0x00000124   Code   RO          213    .text               stm32f10x_exti.o
    0x08002208   0x0000018c   Code   RO          225    .text               stm32f10x_dma.o
    0x08002394   0x000001e8   Code   RO          249    .text               serial.o
    0x0800257c   0x000000f8   Code   RO          272    .text               timertest.o
    0x08002674   0x000000e8   Code   RO          287    .text               main.o
    0x0800275c   0x00000080   Code   RO          381    .text               my_init.o
    0x080027dc   0x00000fa0   Code   RO          399    .text               tasks.o
    0x0800377c   0x00000094   Code   RO          445    .text               list.o
    0x08003810   0x000006a0   Code   RO          457    .text               queue.o
    0x08003eb0   0x000000e8   Code   RO          482    .text               port.o
    0x08003f98   0x00000124   Code   RO          511    .text               heap_2.o
    0x080040bc   0x000002bc   Code   RO          526    .text               jerry_movement.o
    0x08004378   0x000002b8   Code   RO          563    .text               jerry_jobs.o
    0x08004630   0x00000414   Code   RO          582    .text               my_mpu6050_handler.o
    0x08004a44   0x00000410   Code   RO          606    .text               mpu6050.o
    0x08004e54   0x00000124   Code   RO          618    .text               adc_handler.o
    0x08004f78   0x00000138   Code   RO          639    .text               encoder.o
    0x080050b0   0x000001c4   Code   RO          657    .text               motor_ctrl.o
    0x08005274   0x00000160   Code   RO          672    .text               adc_dma.o
    0x080053d4   0x00000134   Code   RO          699    .text               my_serial.o
    0x08005508   0x000000cc   Code   RO          717    .text               my_blinky.o
    0x080055d4   0x0000006a   Code   RO          732    .text               tom_finder.o
    0x0800563e   0x00000078   Code   RO          750    .text               tom_jobs.o
    0x080056b6   0x00000024   Code   RO          783    .text               mc_w.l(memcpya.o)
    0x080056da   0x0000000e   Code   RO          785    .text               mc_w.l(strlen.o)
    0x080056e8   0x0000001c   Code   RO         1078    .text               mc_w.l(calloc.o)
    0x08005704   0x000000b0   Code   RO         1080    .text               mf_w.l(fadd.o)
    0x080057b4   0x00000064   Code   RO         1082    .text               mf_w.l(fmul.o)
    0x08005818   0x0000007c   Code   RO         1084    .text               mf_w.l(fdiv.o)
    0x08005894   0x0000014e   Code   RO         1086    .text               mf_w.l(dadd.o)
    0x080059e2   0x000000e4   Code   RO         1088    .text               mf_w.l(dmul.o)
    0x08005ac6   0x000000de   Code   RO         1090    .text               mf_w.l(ddiv.o)
    0x08005ba4   0x00000012   Code   RO         1092    .text               mf_w.l(fflti.o)
    0x08005bb6   0x0000000a   Code   RO         1094    .text               mf_w.l(ffltui.o)
    0x08005bc0   0x00000022   Code   RO         1096    .text               mf_w.l(dflti.o)
    0x08005be2   0x0000001a   Code   RO         1098    .text               mf_w.l(dfltui.o)
    0x08005bfc   0x00000032   Code   RO         1100    .text               mf_w.l(ffixi.o)
    0x08005c2e   0x0000003e   Code   RO         1102    .text               mf_w.l(dfixi.o)
    0x08005c6c   0x00000026   Code   RO         1104    .text               mf_w.l(f2d.o)
    0x08005c92   0x00000002   PAD
    0x08005c94   0x00000030   Code   RO         1106    .text               mf_w.l(cdcmple.o)
    0x08005cc4   0x00000038   Code   RO         1108    .text               mf_w.l(d2f.o)
    0x08005cfc   0x00000014   Code   RO         1110    .text               mf_w.l(cfcmple.o)
    0x08005d10   0x00000014   Code   RO         1112    .text               mf_w.l(cfrcmple.o)
    0x08005d24   0x0000002c   Code   RO         1149    .text               mc_w.l(uidiv.o)
    0x08005d50   0x0000001e   Code   RO         1153    .text               mc_w.l(llshl.o)
    0x08005d6e   0x00000020   Code   RO         1155    .text               mc_w.l(llushr.o)
    0x08005d8e   0x00000024   Code   RO         1157    .text               mc_w.l(llsshr.o)
    0x08005db2   0x00000000   Code   RO         1168    .text               mc_w.l(iusefp.o)
    0x08005db2   0x0000006e   Code   RO         1169    .text               mf_w.l(fepilogue.o)
    0x08005e20   0x000000ba   Code   RO         1171    .text               mf_w.l(depilogue.o)
    0x08005eda   0x0000002e   Code   RO         1173    .text               mf_w.l(dscalb.o)
    0x08005f08   0x000000a2   Code   RO         1175    .text               mf_w.l(dsqrt.o)
    0x08005faa   0x00000002   PAD
    0x08005fac   0x00000024   Code   RO         1181    .text               mc_w.l(init.o)
    0x08005fd0   0x00000028   Code   RO          836    i.__0sprintf$1      mc_w.l(printf1.o)
    0x08005ff8   0x00000028   Code   RO         1128    i.__ARM_fpclassify  m_ws.l(fpclassify.o)
    0x08006020   0x000000aa   Code   RO         1130    i.__kernel_poly     m_ws.l(poly.o)
    0x080060ca   0x00000006   Code   RO         1115    i.__mathlib_dbl_infnan  m_ws.l(dunder.o)
    0x080060d0   0x0000000c   Code   RO         1117    i.__mathlib_dbl_invalid  m_ws.l(dunder.o)
    0x080060dc   0x00000010   Code   RO         1120    i.__mathlib_dbl_underflow  m_ws.l(dunder.o)
    0x080060ec   0x0000000e   Code   RO         1187    i.__scatterload_copy  mc_w.l(handlers.o)
    0x080060fa   0x00000002   Code   RO         1188    i.__scatterload_null  mc_w.l(handlers.o)
    0x080060fc   0x0000000e   Code   RO         1189    i.__scatterload_zeroinit  mc_w.l(handlers.o)
    0x0800610a   0x00000002   PAD
    0x0800610c   0x0000000c   Code   RO         1163    i.__set_errno       mc_w.l(errno.o)
    0x08006118   0x00000154   Code   RO          841    i._printf_core      mc_w.l(printf1.o)
    0x0800626c   0x0000000a   Code   RO          843    i._sputc            mc_w.l(printf1.o)
    0x08006276   0x00000002   PAD
    0x08006278   0x00000270   Code   RO          763    i.asin              m_ws.l(asin.o)
    0x080064e8   0x00000050   Code   RO         1050    i.free              mc_w.l(malloc.o)
    0x08006538   0x0000006c   Code   RO         1051    i.malloc            mc_w.l(malloc.o)
    0x080065a4   0x0000004c   Code   RO          773    i.sqrt              m_ws.l(sqrt.o)
    0x080065f0   0x00000014   Data   RO          132    .constdata          stm32f10x_rcc.o
    0x08006604   0x00000010   Data   RO          170    .constdata          stm32f10x_tim.o
    0x08006614   0x00000004   PAD
    0x08006618   0x00000050   Data   RO          764    .constdata          m_ws.l(asin.o)
    0x08006668   0x00000020   Data   RO         1185    Region$$Table       anon$$obj.o


    Execution Region RW_IRAM1 (Base: 0x20000000, Size: 0x000047a0, Max: 0x00005000, ABSOLUTE)

    Base Addr    Size         Type   Attr      Idx    E Section Name        Object

    0x20000000   0x00000008   Data   RW          250    .data               serial.o
    0x20000008   0x00000008   Data   RW          273    .data               timertest.o
    0x20000010   0x0000003c   Data   RW          401    .data               tasks.o
    0x2000004c   0x00000004   Data   RW          483    .data               port.o
    0x20000050   0x00000018   Data   RW          513    .data               heap_2.o
    0x20000068   0x00000010   Data   RW          564    .data               jerry_jobs.o
    0x20000078   0x00000014   Data   RW          583    .data               my_mpu6050_handler.o
    0x2000008c   0x00000004   Data   RW          619    .data               adc_handler.o
    0x20000090   0x00000004   Data   RW          640    .data               encoder.o
    0x20000094   0x00000004   Data   RW         1159    .data               mc_w.l(mvars.o)
    0x20000098   0x00000004   Data   RW         1160    .data               mc_w.l(mvars.o)
    0x2000009c   0x00000004   Data   RW         1164    .data               mc_w.l(errno.o)
    0x200000a0   0x00000014   Zero   RW          288    .bss                main.o
    0x200000b4   0x000000c8   Zero   RW          400    .bss                tasks.o
    0x2000017c   0x00004400   Zero   RW          512    .bss                heap_2.o
    0x2000457c   0x00000024   Zero   RW          527    .bss                jerry_movement.o
    0x200045a0   0x00000000   Zero   RW            2    HEAP                stm32f10x.o
    0x200045a0   0x00000200   Zero   RW            1    STACK               stm32f10x.o


==============================================================================

Image component sizes


      Code (inc. data)   RO Data    RW Data    ZI Data      Debug   Object Name

       352         16          0          0          0       1496   adc_dma.o
       292          4          0          4          0       2803   adc_handler.o
       110          0          0          0          0        492   cortexm3_macro_rvds.o
       312         18          0          4          0       2197   encoder.o
       292         20          0         24      17408       3396   heap_2.o
       696         24          0         16          0       3182   jerry_jobs.o
       700         86          0          0         36       4255   jerry_movement.o
       148          0          0          0          0       1990   list.o
       232         70          0          0         20       7084   main.o
       452         22          0          0          0       1920   motor_ctrl.o
      1040         20          0          0          0       5729   mpu6050.o
       204         12          0          0          0        709   my_blinky.o
       128          6          0          0          0        583   my_init.o
      1044         64          0         20          0       3335   my_mpu6050_handler.o
       308         12          0          0          0       1402   my_serial.o
       382         28          0          4          0       7484   port.o
      1696         10          0          0          0      18818   queue.o
       488         20          0          8          0       8035   serial.o
        28          4        236          0        512        856   stm32f10x.o
      1056         22          0          0          0      10734   stm32f10x_adc.o
       396          8          0          0          0       3271   stm32f10x_dma.o
       292         12          0          0          0       2323   stm32f10x_exti.o
       736         16          0          0          0       9755   stm32f10x_gpio.o
      1046         16          0          0          0      16308   stm32f10x_i2c.o
         0          0          0          0          0      29372   stm32f10x_lib.o
       992         30          0          0          0       7392   stm32f10x_nvic.o
       892         38         20          0          0       8598   stm32f10x_rcc.o
       196          0          0          0          0       1669   stm32f10x_systick.o
      2148         12         16          0          0      32048   stm32f10x_tim.o
       804         10          0          0          0      31253   stm32f10x_usart.o
      4000        260          0         60        200      28747   tasks.o
       248         20          0          8          0       1318   timertest.o
       106          0          0          0          0       1487   tom_finder.o
       120         16          0          0          0        951   tom_jobs.o

    ----------------------------------------------------------------------
     21942        896        308        148      18176     260992   Object Totals
         0          0         32          0          0          0   (incl. Generated)
         6          0          4          0          0          0   (incl. Padding)

    ----------------------------------------------------------------------

      Code (inc. data)   RO Data    RW Data    ZI Data      Debug   Library Member Name

       624         52         80          0          0        168   asin.o
        34          6          0          0          0        204   dunder.o
        40          0          0          0          0         68   fpclassify.o
       170          0          0          0          0         96   poly.o
        76          0          0          0          0         84   sqrt.o
        28          0          0          0          0         76   calloc.o
         0          0          0          0          0          0   entry.o
         0          0          0          0          0          0   entry10a.o
         0          0          0          0          0          0   entry11a.o
         8          4          0          0          0          0   entry2.o
         4          0          0          0          0          0   entry5.o
         0          0          0          0          0          0   entry7b.o
         0          0          0          0          0          0   entry8b.o
         8          4          0          0          0          0   entry9a.o
        12          6          0          4          0         68   errno.o
        30          0          0          0          0          0   handlers.o
        36          8          0          0          0         68   init.o
         0          0          0          0          0          0   iusefp.o
        30          0          0          0          0         68   llshl.o
        36          0          0          0          0         68   llsshr.o
        32          0          0          0          0         68   llushr.o
       188         20          0          0          0        160   malloc.o
        36          0          0          0          0         68   memcpya.o
         0          0          0          8          0          0   mvars.o
       390         10          0          0          0        252   printf1.o
        14          0          0          0          0         68   strlen.o
        44          0          0          0          0         80   uidiv.o
        48          0          0          0          0         68   cdcmple.o
        20          0          0          0          0         68   cfcmple.o
        20          0          0          0          0         68   cfrcmple.o
        56          0          0          0          0         88   d2f.o
       334          0          0          0          0        148   dadd.o
       222          0          0          0          0        100   ddiv.o
       186          0          0          0          0        176   depilogue.o
        62          0          0          0          0         80   dfixi.o
        34          0          0          0          0         76   dflti.o
        26          0          0          0          0         76   dfltui.o
       228          0          0          0          0         96   dmul.o
        46          0          0          0          0         80   dscalb.o
       162          0          0          0          0        100   dsqrt.o
        38          0          0          0          0         68   f2d.o
       176          0          0          0          0        140   fadd.o
       124          0          0          0          0         88   fdiv.o
       110          0          0          0          0        168   fepilogue.o
        50          0          0          0          0         68   ffixi.o
        18          0          0          0          0         68   fflti.o
        10          0          0          0          0         68   ffltui.o
       100          0          0          0          0         76   fmul.o

    ----------------------------------------------------------------------
      3918        110         80         12          0       3632   Library Totals
         8          0          0          0          0          0   (incl. Padding)

    ----------------------------------------------------------------------

      Code (inc. data)   RO Data    RW Data    ZI Data      Debug   Library Name

       944         58         80          0          0        620   m_ws.l
       896         52          0         12          0       1044   mc_w.l
      2070          0          0          0          0       1968   mf_w.l

    ----------------------------------------------------------------------
      3918        110         80         12          0       3632   Library Totals

    ----------------------------------------------------------------------

==============================================================================


      Code (inc. data)   RO Data    RW Data    ZI Data      Debug   

     25860       1006        388        160      18176     259368   Grand Totals
     25860       1006        388        160      18176     259368   ELF Image Totals
     25860       1006        388        160          0          0   ROM Totals

==============================================================================

    Total RO  Size (Code + RO Data)                26248 (  25.63kB)
    Total RW  Size (RW Data + ZI Data)             18336 (  17.91kB)
    Total ROM Size (Code + RO Data + RW Data)      26408 (  25.79kB)

==============================================================================

